{
  "contractName": "DutchAuction",
  "abi": [
    {
      "inputs": [
        {
          "internalType": "address",
          "name": "_tokenAddress",
          "type": "address"
        },
        {
          "internalType": "uint256",
          "name": "_initialPrice",
          "type": "uint256"
        },
        {
          "internalType": "uint256",
          "name": "_reservePrice",
          "type": "uint256"
        },
        {
          "internalType": "uint256",
          "name": "_priceDecreaseRate",
          "type": "uint256"
        },
        {
          "internalType": "uint256",
          "name": "_priceDecreaseInterval",
          "type": "uint256"
        },
        {
          "internalType": "uint256",
          "name": "_duration",
          "type": "uint256"
        },
        {
          "internalType": "uint256",
          "name": "_totalTokens",
          "type": "uint256"
        }
      ],
      "stateMutability": "nonpayable",
      "type": "constructor"
    },
    {
      "anonymous": false,
      "inputs": [
        {
          "indexed": false,
          "internalType": "uint256",
          "name": "finalPrice",
          "type": "uint256"
        }
      ],
      "name": "AuctionEnded",
      "type": "event"
    },
    {
      "anonymous": false,
      "inputs": [
        {
          "indexed": false,
          "internalType": "address",
          "name": "bidder",
          "type": "address"
        },
        {
          "indexed": false,
          "internalType": "uint256",
          "name": "tokensAllocated",
          "type": "uint256"
        },
        {
          "indexed": false,
          "internalType": "uint256",
          "name": "amountRefunded",
          "type": "uint256"
        }
      ],
      "name": "TokensDistributed",
      "type": "event"
    },
    {
      "anonymous": false,
      "inputs": [
        {
          "indexed": false,
          "internalType": "address",
          "name": "bidder",
          "type": "address"
        },
        {
          "indexed": false,
          "internalType": "uint256",
          "name": "amountInvested",
          "type": "uint256"
        },
        {
          "indexed": false,
          "internalType": "uint256",
          "name": "tokensToBeAllocated",
          "type": "uint256"
        }
      ],
      "name": "TokensPurchased",
      "type": "event"
    },
    {
      "inputs": [],
      "name": "auctionEndTime",
      "outputs": [
        {
          "internalType": "uint256",
          "name": "",
          "type": "uint256"
        }
      ],
      "stateMutability": "view",
      "type": "function",
      "constant": true
    },
    {
      "inputs": [],
      "name": "auctionStartTime",
      "outputs": [
        {
          "internalType": "uint256",
          "name": "",
          "type": "uint256"
        }
      ],
      "stateMutability": "view",
      "type": "function",
      "constant": true
    },
    {
      "inputs": [],
      "name": "auctionToken",
      "outputs": [
        {
          "internalType": "contract AuctionToken",
          "name": "",
          "type": "address"
        }
      ],
      "stateMutability": "view",
      "type": "function",
      "constant": true
    },
    {
      "inputs": [
        {
          "internalType": "address",
          "name": "",
          "type": "address"
        }
      ],
      "name": "bidders",
      "outputs": [
        {
          "internalType": "uint256",
          "name": "investedAmount",
          "type": "uint256"
        },
        {
          "internalType": "uint256",
          "name": "tokensOwned",
          "type": "uint256"
        }
      ],
      "stateMutability": "view",
      "type": "function",
      "constant": true
    },
    {
      "inputs": [],
      "name": "ended",
      "outputs": [
        {
          "internalType": "bool",
          "name": "",
          "type": "bool"
        }
      ],
      "stateMutability": "view",
      "type": "function",
      "constant": true
    },
    {
      "inputs": [],
      "name": "finalPrice",
      "outputs": [
        {
          "internalType": "uint256",
          "name": "",
          "type": "uint256"
        }
      ],
      "stateMutability": "view",
      "type": "function",
      "constant": true
    },
    {
      "inputs": [],
      "name": "initialPrice",
      "outputs": [
        {
          "internalType": "uint256",
          "name": "",
          "type": "uint256"
        }
      ],
      "stateMutability": "view",
      "type": "function",
      "constant": true
    },
    {
      "inputs": [],
      "name": "isInitialized",
      "outputs": [
        {
          "internalType": "bool",
          "name": "",
          "type": "bool"
        }
      ],
      "stateMutability": "view",
      "type": "function",
      "constant": true
    },
    {
      "inputs": [],
      "name": "priceDecreaseInterval",
      "outputs": [
        {
          "internalType": "uint256",
          "name": "",
          "type": "uint256"
        }
      ],
      "stateMutability": "view",
      "type": "function",
      "constant": true
    },
    {
      "inputs": [],
      "name": "priceDecreaseRate",
      "outputs": [
        {
          "internalType": "uint256",
          "name": "",
          "type": "uint256"
        }
      ],
      "stateMutability": "view",
      "type": "function",
      "constant": true
    },
    {
      "inputs": [],
      "name": "reservePrice",
      "outputs": [
        {
          "internalType": "uint256",
          "name": "",
          "type": "uint256"
        }
      ],
      "stateMutability": "view",
      "type": "function",
      "constant": true
    },
    {
      "inputs": [],
      "name": "seller",
      "outputs": [
        {
          "internalType": "address payable",
          "name": "",
          "type": "address"
        }
      ],
      "stateMutability": "view",
      "type": "function",
      "constant": true
    },
    {
      "inputs": [],
      "name": "totalTokens",
      "outputs": [
        {
          "internalType": "uint256",
          "name": "",
          "type": "uint256"
        }
      ],
      "stateMutability": "view",
      "type": "function",
      "constant": true
    },
    {
      "inputs": [
        {
          "internalType": "uint256",
          "name": "_initialPrice",
          "type": "uint256"
        },
        {
          "internalType": "uint256",
          "name": "_reservePrice",
          "type": "uint256"
        },
        {
          "internalType": "uint256",
          "name": "_priceDecreaseRate",
          "type": "uint256"
        },
        {
          "internalType": "uint256",
          "name": "_priceDecreaseInterval",
          "type": "uint256"
        },
        {
          "internalType": "uint256",
          "name": "_duration",
          "type": "uint256"
        },
        {
          "internalType": "uint256",
          "name": "_totalTokens",
          "type": "uint256"
        }
      ],
      "name": "initializeAuction",
      "outputs": [],
      "stateMutability": "nonpayable",
      "type": "function"
    },
    {
      "inputs": [],
      "name": "currentPrice",
      "outputs": [
        {
          "internalType": "uint256",
          "name": "",
          "type": "uint256"
        }
      ],
      "stateMutability": "view",
      "type": "function",
      "constant": true
    },
    {
      "inputs": [],
      "name": "buyTokens",
      "outputs": [],
      "stateMutability": "payable",
      "type": "function",
      "payable": true
    },
    {
      "inputs": [],
      "name": "resetAuction",
      "outputs": [],
      "stateMutability": "nonpayable",
      "type": "function"
    }
  ],
  "bytecode": "0x608060405234801562000010575f80fd5b50604051620023933803806200239383398181016040528101906200003691906200019f565b865f806101000a81548173ffffffffffffffffffffffffffffffffffffffff021916908373ffffffffffffffffffffffffffffffffffffffff1602179055503360015f6101000a81548173ffffffffffffffffffffffffffffffffffffffff021916908373ffffffffffffffffffffffffffffffffffffffff160217905550856002819055508460038190555083600481905550826005819055504260068190555081600654620000e891906200027a565b6007819055508060088190555050505050505050620002b4565b5f80fd5b5f73ffffffffffffffffffffffffffffffffffffffff82169050919050565b5f620001318262000106565b9050919050565b620001438162000125565b81146200014e575f80fd5b50565b5f81519050620001618162000138565b92915050565b5f819050919050565b6200017b8162000167565b811462000186575f80fd5b50565b5f81519050620001998162000170565b92915050565b5f805f805f805f60e0888a031215620001bd57620001bc62000102565b5b5f620001cc8a828b0162000151565b9750506020620001df8a828b0162000189565b9650506040620001f28a828b0162000189565b9550506060620002058a828b0162000189565b9450506080620002188a828b0162000189565b93505060a06200022b8a828b0162000189565b92505060c06200023e8a828b0162000189565b91505092959891949750929550565b7f4e487b71000000000000000000000000000000000000000000000000000000005f52601160045260245ffd5b5f620002868262000167565b9150620002938362000167565b9250828201905080821115620002ae57620002ad6200024d565b5b92915050565b6120d180620002c25f395ff3fe6080604052600436106100fd575f3560e01c806399fdb32011610094578063d0febe4c11610063578063d0febe4c146102e3578063db2e1eed146102ed578063eb54f9ec14610317578063eecb24ec14610341578063fcc8f7931461036b576100fd565b806399fdb3201461023d5780639d1b464a14610267578063a6b513ee14610291578063be2b8bcf146102bb576100fd565b80634b449cba116100d05780634b449cba146101a95780637cc58a96146101d35780637d350453146101fd5780637e1c0c0914610213576100fd565b806308551a531461010157806312fa6feb1461012b5780631d0806ae14610155578063392e53cd1461017f575b5f80fd5b34801561010c575f80fd5b506101156103a8565b6040516101229190611648565b60405180910390f35b348015610136575f80fd5b5061013f6103cd565b60405161014c919061167b565b60405180910390f35b348015610160575f80fd5b506101696103df565b60405161017691906116ac565b60405180910390f35b34801561018a575f80fd5b506101936103e5565b6040516101a0919061167b565b60405180910390f35b3480156101b4575f80fd5b506101bd6103f7565b6040516101ca91906116ac565b60405180910390f35b3480156101de575f80fd5b506101e76103fd565b6040516101f491906116ac565b60405180910390f35b348015610208575f80fd5b50610211610403565b005b34801561021e575f80fd5b506102276105e7565b60405161023491906116ac565b60405180910390f35b348015610248575f80fd5b506102516105ed565b60405161025e9190611720565b60405180910390f35b348015610272575f80fd5b5061027b610610565b60405161028891906116ac565b60405180910390f35b34801561029c575f80fd5b506102a56106ae565b6040516102b291906116ac565b60405180910390f35b3480156102c6575f80fd5b506102e160048036038101906102dc9190611767565b6106b4565b005b6102eb6107f9565b005b3480156102f8575f80fd5b50610301610d10565b60405161030e91906116ac565b60405180910390f35b348015610322575f80fd5b5061032b610d16565b60405161033891906116ac565b60405180910390f35b34801561034c575f80fd5b50610355610d1c565b60405161036291906116ac565b60405180910390f35b348015610376575f80fd5b50610391600480360381019061038c919061182b565b610d22565b60405161039f929190611856565b60405180910390f35b60015f9054906101000a900473ffffffffffffffffffffffffffffffffffffffff1681565b60095f9054906101000a900460ff1681565b60025481565b600b5f9054906101000a900460ff1681565b60075481565b60055481565b60015f9054906101000a900473ffffffffffffffffffffffffffffffffffffffff1673ffffffffffffffffffffffffffffffffffffffff163373ffffffffffffffffffffffffffffffffffffffff1614610492576040517f08c379a0000000000000000000000000000000000000000000000000000000008152600401610489906118d7565b60405180910390fd5b5f60085411806104ad575060095f9054906101000a900460ff165b6104ec576040517f08c379a00000000000000000000000000000000000000000000000000000000081526004016104e39061193f565b60405180910390fd5b5f600b5f6101000a81548160ff0219169083151502179055505f60095f6101000a81548160ff021916908315150217905550600a5f905560065f905560075f90555f5b600d805490508110156105d757600c5f600d83815481106105535761055261195d565b5b905f5260205f20015f9054906101000a900473ffffffffffffffffffffffffffffffffffffffff1673ffffffffffffffffffffffffffffffffffffffff1673ffffffffffffffffffffffffffffffffffffffff1681526020019081526020015f205f8082015f9055600182015f9055505080806105cf906119b7565b91505061052f565b50600d5f6105e591906115c6565b565b60085481565b5f8054906101000a900473ffffffffffffffffffffffffffffffffffffffff1681565b5f60075442116106a5575f61063060065442610d4290919063ffffffff16565b90505f61065c60045461064e60055485610d5790919063ffffffff16565b610d6c90919063ffffffff16565b90505f816002541161067057600354610686565b61068582600254610d4290919063ffffffff16565b5b905060035481116106995760035461069b565b805b93505050506106ab565b60035490505b90565b600a5481565b60015f9054906101000a900473ffffffffffffffffffffffffffffffffffffffff1673ffffffffffffffffffffffffffffffffffffffff163373ffffffffffffffffffffffffffffffffffffffff1614610743576040517f08c379a000000000000000000000000000000000000000000000000000000000815260040161073a90611a6e565b60405180910390fd5b600b5f9054906101000a900460ff1615610792576040517f08c379a000000000000000000000000000000000000000000000000000000000815260040161078990611ad6565b60405180910390fd5b85600281905550846003819055508360048190555082600581905550426006819055506107ca82600654610d8190919063ffffffff16565b600781905550806008819055506001600b5f6101000a81548160ff021916908315150217905550505050505050565b6108376040518060400160405280600681526020017f53656c6c65720000000000000000000000000000000000000000000000000000815250610d96565b61086160015f9054906101000a900473ffffffffffffffffffffffffffffffffffffffff16610e2f565b61086a42610ec8565b6007544211156108af576040517f08c379a00000000000000000000000000000000000000000000000000000000081526004016108a690611b3e565b60405180910390fd5b6108c660095f9054906101000a900460ff16610f61565b60095f9054906101000a900460ff1615610915576040517f08c379a000000000000000000000000000000000000000000000000000000000815260040161090c90611ba6565b60405180910390fd5b61091e34610ec8565b5f3411610960576040517f08c379a000000000000000000000000000000000000000000000000000000000815260040161095790611c0e565b60405180910390fd5b5f610969610610565b905061097481610ec8565b5f81116109b6576040517f08c379a00000000000000000000000000000000000000000000000000000000081526004016109ad90611c76565b60405180910390fd5b5f6109ca8234610d5790919063ffffffff16565b90506109d581610ec8565b5f8111610a17576040517f08c379a0000000000000000000000000000000000000000000000000000000008152600401610a0e90611cde565b60405180910390fd5b6008548110610a265760085490505b5f600c5f3373ffffffffffffffffffffffffffffffffffffffff1673ffffffffffffffffffffffffffffffffffffffff1681526020019081526020015f205f0154148015610ab357505f600c5f3373ffffffffffffffffffffffffffffffffffffffff1673ffffffffffffffffffffffffffffffffffffffff1681526020019081526020015f2060010154145b15610b1957600d33908060018154018082558091505060019003905f5260205f20015f9091909190916101000a81548173ffffffffffffffffffffffffffffffffffffffff021916908373ffffffffffffffffffffffffffffffffffffffff1602179055505b610b6b34600c5f3373ffffffffffffffffffffffffffffffffffffffff1673ffffffffffffffffffffffffffffffffffffffff1681526020019081526020015f205f0154610d8190919063ffffffff16565b600c5f3373ffffffffffffffffffffffffffffffffffffffff1673ffffffffffffffffffffffffffffffffffffffff1681526020019081526020015f205f0181905550610c0181600c5f3373ffffffffffffffffffffffffffffffffffffffff1673ffffffffffffffffffffffffffffffffffffffff1681526020019081526020015f2060010154610d8190919063ffffffff16565b600c5f3373ffffffffffffffffffffffffffffffffffffffff1673ffffffffffffffffffffffffffffffffffffffff1681526020019081526020015f2060010181905550610c5a81600854610d4290919063ffffffff16565b600881905550610c6b600854610ec8565b5f6008541015610cb0576040517f08c379a0000000000000000000000000000000000000000000000000000000008152600401610ca790611d6c565b60405180910390fd5b7f8fafebcaf9d154343dad25669bfa277f4fbacd7ac6b0c4fed522580e040a0f33333483604051610ce393929190611d99565b60405180910390a15f6008541480610cfd57506007544210155b15610d0c57610d0b82610ffa565b5b5050565b60035481565b60065481565b60045481565b600c602052805f5260405f205f91509050805f0154908060010154905082565b5f8183610d4f9190611dce565b905092915050565b5f8183610d649190611e2e565b905092915050565b5f8183610d799190611e5e565b905092915050565b5f8183610d8e9190611e9f565b905092915050565b610e2c81604051602401610daa9190611f4c565b6040516020818303038152906040527f41304fac000000000000000000000000000000000000000000000000000000007bffffffffffffffffffffffffffffffffffffffffffffffffffffffff19166020820180517bffffffffffffffffffffffffffffffffffffffffffffffffffffffff83818316178352505050506114e6565b50565b610ec581604051602401610e439190611f6c565b6040516020818303038152906040527f2c2ecbc2000000000000000000000000000000000000000000000000000000007bffffffffffffffffffffffffffffffffffffffffffffffffffffffff19166020820180517bffffffffffffffffffffffffffffffffffffffffffffffffffffffff83818316178352505050506114e6565b50565b610f5e81604051602401610edc91906116ac565b6040516020818303038152906040527ff82c50f1000000000000000000000000000000000000000000000000000000007bffffffffffffffffffffffffffffffffffffffffffffffffffffffff19166020820180517bffffffffffffffffffffffffffffffffffffffffffffffffffffffff83818316178352505050506114e6565b50565b610ff781604051602401610f75919061167b565b6040516020818303038152906040527f32458eed000000000000000000000000000000000000000000000000000000007bffffffffffffffffffffffffffffffffffffffffffffffffffffffff19166020820180517bffffffffffffffffffffffffffffffffffffffffffffffffffffffff83818316178352505050506114e6565b50565b6110386040518060400160405280601881526020017f656e74657265642066696e616c697a652061756374696f6e0000000000000000815250610d96565b600160095f6101000a81548160ff02191690831515021790555080600a819055505f805f5b600d805490508110156114425761107381610ec8565b5f600c5f600d848154811061108b5761108a61195d565b5b905f5260205f20015f9054906101000a900473ffffffffffffffffffffffffffffffffffffffff1673ffffffffffffffffffffffffffffffffffffffff1673ffffffffffffffffffffffffffffffffffffffff1681526020019081526020015f2090506110fa815f0154610ec8565b6111078160010154610ec8565b5f611121600a548360010154610d6c90919063ffffffff16565b90505f81835f015411611134575f61114b565b61114a82845f0154610d4290919063ffffffff16565b5b90505f8111156111d557600d84815481106111695761116861195d565b5b905f5260205f20015f9054906101000a900473ffffffffffffffffffffffffffffffffffffffff1673ffffffffffffffffffffffffffffffffffffffff166108fc8290811502906040515f60405180830381858888f193505050501580156111d3573d5f803e3d5ffd5b505b6112aa6040518060400160405280601a81526020017f42616c616e6365206f662061746b206f6620636f6e74726163740000000000008152505f8054906101000a900473ffffffffffffffffffffffffffffffffffffffff1673ffffffffffffffffffffffffffffffffffffffff166370a08231306040518263ffffffff1660e01b81526004016112669190611f6c565b602060405180830381865afa158015611281573d5f803e3d5ffd5b505050506040513d601f19601f820116820180604052508101906112a59190611f99565b611500565b5f8054906101000a900473ffffffffffffffffffffffffffffffffffffffff1673ffffffffffffffffffffffffffffffffffffffff1663a9059cbb600d86815481106112f9576112f861195d565b5b905f5260205f20015f9054906101000a900473ffffffffffffffffffffffffffffffffffffffff1685600101546040518363ffffffff1660e01b8152600401611343929190611fc4565b6020604051808303815f875af115801561135f573d5f803e3d5ffd5b505050506040513d601f19601f820116820180604052508101906113839190612015565b507ff75d5c8724380d126d0ce1ef2c57b7e856e7fe00051f6184966b31323463cf12600d85815481106113b9576113b861195d565b5b905f5260205f20015f9054906101000a900473ffffffffffffffffffffffffffffffffffffffff168460010154836040516113f693929190611d99565b60405180910390a1611415836001015487610d8190919063ffffffff16565b955061142a8286610d8190919063ffffffff16565b9450505050808061143a906119b7565b91505061105d565b5060015f9054906101000a900473ffffffffffffffffffffffffffffffffffffffff1673ffffffffffffffffffffffffffffffffffffffff166108fc8290811502906040515f60405180830381858888f193505050501580156114a7573d5f803e3d5ffd5b507f45806e512b1f4f10e33e8b3cb64d1d11d998d8c554a95e0841fc1c701278bd5d600a546040516114d991906116ac565b60405180910390a1505050565b6114fd816114f561159c6115bb565b63ffffffff16565b50565b6115988282604051602401611516929190612040565b6040516020818303038152906040527fb60e72cc000000000000000000000000000000000000000000000000000000007bffffffffffffffffffffffffffffffffffffffffffffffffffffffff19166020820180517bffffffffffffffffffffffffffffffffffffffffffffffffffffffff83818316178352505050506114e6565b5050565b5f6a636f6e736f6c652e6c6f6790505f80835160208501845afa505050565b6115e4819050919050565b5080545f8255905f5260205f20908101906115e191906115ee565b50565b6115ec61206e565b565b5b80821115611605575f815f9055506001016115ef565b5090565b5f73ffffffffffffffffffffffffffffffffffffffff82169050919050565b5f61163282611609565b9050919050565b61164281611628565b82525050565b5f60208201905061165b5f830184611639565b92915050565b5f8115159050919050565b61167581611661565b82525050565b5f60208201905061168e5f83018461166c565b92915050565b5f819050919050565b6116a681611694565b82525050565b5f6020820190506116bf5f83018461169d565b92915050565b5f819050919050565b5f6116e86116e36116de84611609565b6116c5565b611609565b9050919050565b5f6116f9826116ce565b9050919050565b5f61170a826116ef565b9050919050565b61171a81611700565b82525050565b5f6020820190506117335f830184611711565b92915050565b5f80fd5b61174681611694565b8114611750575f80fd5b50565b5f813590506117618161173d565b92915050565b5f805f805f8060c0878903121561178157611780611739565b5b5f61178e89828a01611753565b965050602061179f89828a01611753565b95505060406117b089828a01611753565b94505060606117c189828a01611753565b93505060806117d289828a01611753565b92505060a06117e389828a01611753565b9150509295509295509295565b5f6117fa82611609565b9050919050565b61180a816117f0565b8114611814575f80fd5b50565b5f8135905061182581611801565b92915050565b5f602082840312156118405761183f611739565b5b5f61184d84828501611817565b91505092915050565b5f6040820190506118695f83018561169d565b611876602083018461169d565b9392505050565b5f82825260208201905092915050565b7f4f6e6c792073656c6c65722063616e2072657365742061756374696f6e0000005f82015250565b5f6118c1601d8361187d565b91506118cc8261188d565b602082019050919050565b5f6020820190508181035f8301526118ee816118b5565b9050919050565b7f43616e6e6f74207265736574206f6e676f696e672061756374696f6e000000005f82015250565b5f611929601c8361187d565b9150611934826118f5565b602082019050919050565b5f6020820190508181035f8301526119568161191d565b9050919050565b7f4e487b71000000000000000000000000000000000000000000000000000000005f52603260045260245ffd5b7f4e487b71000000000000000000000000000000000000000000000000000000005f52601160045260245ffd5b5f6119c182611694565b91507fffffffffffffffffffffffffffffffffffffffffffffffffffffffffffffffff82036119f3576119f261198a565b5b600182019050919050565b7f4f6e6c79207468652073656c6c65722063616e20696e697469616c697a6520745f8201527f68652061756374696f6e00000000000000000000000000000000000000000000602082015250565b5f611a58602a8361187d565b9150611a63826119fe565b604082019050919050565b5f6020820190508181035f830152611a8581611a4c565b9050919050565b7f41756374696f6e20697320696e697469616c697a6564000000000000000000005f82015250565b5f611ac060168361187d565b9150611acb82611a8c565b602082019050919050565b5f6020820190508181035f830152611aed81611ab4565b9050919050565b7f41756374696f6e2068617320616c726561647920656e6465642e0000000000005f82015250565b5f611b28601a8361187d565b9150611b3382611af4565b602082019050919050565b5f6020820190508181035f830152611b5581611b1c565b9050919050565b7f41756374696f6e20616c726561647920656e6465642e000000000000000000005f82015250565b5f611b9060168361187d565b9150611b9b82611b5c565b602082019050919050565b5f6020820190508181035f830152611bbd81611b84565b9050919050565b7f4e6f2065746865722073656e74000000000000000000000000000000000000005f82015250565b5f611bf8600d8361187d565b9150611c0382611bc4565b602082019050919050565b5f6020820190508181035f830152611c2581611bec565b9050919050565b7f43757272656e74207072696365206973207a65726f00000000000000000000005f82015250565b5f611c6060158361187d565b9150611c6b82611c2c565b602082019050919050565b5f6020820190508181035f830152611c8d81611c54565b9050919050565b7f496e73756666696369656e742066756e647320746f2062757920746f6b656e735f82015250565b5f611cc860208361187d565b9150611cd382611c94565b602082019050919050565b5f6020820190508181035f830152611cf581611cbc565b9050919050565b7f52657175657374656420746f6b656e732065786365656420617661696c6162695f8201527f6c69747900000000000000000000000000000000000000000000000000000000602082015250565b5f611d5660248361187d565b9150611d6182611cfc565b604082019050919050565b5f6020820190508181035f830152611d8381611d4a565b9050919050565b611d93816117f0565b82525050565b5f606082019050611dac5f830186611d8a565b611db9602083018561169d565b611dc6604083018461169d565b949350505050565b5f611dd882611694565b9150611de383611694565b9250828203905081811115611dfb57611dfa61198a565b5b92915050565b7f4e487b71000000000000000000000000000000000000000000000000000000005f52601260045260245ffd5b5f611e3882611694565b9150611e4383611694565b925082611e5357611e52611e01565b5b828204905092915050565b5f611e6882611694565b9150611e7383611694565b9250828202611e8181611694565b91508282048414831517611e9857611e9761198a565b5b5092915050565b5f611ea982611694565b9150611eb483611694565b9250828201905080821115611ecc57611ecb61198a565b5b92915050565b5f81519050919050565b5f5b83811015611ef9578082015181840152602081019050611ede565b5f8484015250505050565b5f601f19601f8301169050919050565b5f611f1e82611ed2565b611f28818561187d565b9350611f38818560208601611edc565b611f4181611f04565b840191505092915050565b5f6020820190508181035f830152611f648184611f14565b905092915050565b5f602082019050611f7f5f830184611d8a565b92915050565b5f81519050611f938161173d565b92915050565b5f60208284031215611fae57611fad611739565b5b5f611fbb84828501611f85565b91505092915050565b5f604082019050611fd75f830185611d8a565b611fe4602083018461169d565b9392505050565b611ff481611661565b8114611ffe575f80fd5b50565b5f8151905061200f81611feb565b92915050565b5f6020828403121561202a57612029611739565b5b5f61203784828501612001565b91505092915050565b5f6040820190508181035f8301526120588185611f14565b9050612067602083018461169d565b9392505050565b7f4e487b71000000000000000000000000000000000000000000000000000000005f52605160045260245ffdfea26469706673582212207f92c41d2d96771db02bad3e2e44d8fa0d240d466c6d1452ae2cd562c683884964736f6c63430008150033",
  "immutableReferences": {},
  "source": "// SPDX-License-Identifier: MIT\npragma solidity ^0.8.0;\n\nimport \"./AuctionToken.sol\";\nimport \"@openzeppelin/contracts/utils/math/SafeMath.sol\";\nimport \"hardhat/console.sol\";\n\ncontract DutchAuction {\n    using SafeMath for uint;\n\n    AuctionToken public auctionToken;\n    address payable public seller;\n    uint public initialPrice;\n    uint public reservePrice;\n    uint public priceDecreaseRate;\n    uint public priceDecreaseInterval;\n    uint public auctionStartTime;\n    uint public auctionEndTime;\n    uint public totalTokens; // Total tokens available in the auction\n    bool public ended;\n    uint public finalPrice; // This will store the final confirmed price\n    bool public isInitialized;\n\n    struct Bidder {\n        uint investedAmount; // Amount invested by the bidder\n        uint tokensOwned;    // Tokens to be allocated to the bidder\n    }\n\n    mapping(address => Bidder) public bidders;\n    address[] private bidderAddresses;\n\n    event TokensPurchased(address bidder, uint amountInvested, uint tokensToBeAllocated);\n    event TokensDistributed(address bidder, uint tokensAllocated, uint amountRefunded);\n    event AuctionEnded(uint finalPrice);\n\n     constructor(\n        address _tokenAddress,\n        uint _initialPrice,\n        uint _reservePrice,\n        uint _priceDecreaseRate,\n        uint _priceDecreaseInterval,\n        uint _duration,\n        uint _totalTokens\n    ) {\n        auctionToken = AuctionToken(_tokenAddress);\n        seller = payable(msg.sender);\n        initialPrice = _initialPrice;\n        reservePrice = _reservePrice;\n        priceDecreaseRate = _priceDecreaseRate;\n        priceDecreaseInterval = _priceDecreaseInterval;\n        auctionStartTime = block.timestamp;\n        auctionEndTime = auctionStartTime + _duration;\n        totalTokens = _totalTokens;\n\n\n        // // Transfer approved tokens from the seller to the contract\n        // require(\n        //     auctionToken.transferFrom(seller, address(this), totalTokens),\n        //     \"Token transfer to contract failed\"\n        // );\n\n    }\n\n    function initializeAuction(\n        uint _initialPrice,\n        uint _reservePrice,\n        uint _priceDecreaseRate,\n        uint _priceDecreaseInterval,\n        uint _duration,\n        uint _totalTokens\n    ) external {\n        require(msg.sender == seller, \"Only the seller can initialize the auction\");\n        require(!isInitialized, \"Auction is initialized\");\n\n        initialPrice = _initialPrice;\n        reservePrice = _reservePrice;\n        priceDecreaseRate = _priceDecreaseRate;\n        priceDecreaseInterval = _priceDecreaseInterval;\n        auctionStartTime = block.timestamp;\n        auctionEndTime = auctionStartTime.add(_duration);\n        totalTokens = _totalTokens;\n        isInitialized = true;\n    }\n\n    // Calculate the current price based on time elapsed and decrease rate\n    function currentPrice() public view returns (uint) {\n        if (block.timestamp <= auctionEndTime) {\n            uint elapsed = block.timestamp.sub(auctionStartTime);\n            uint priceDecrease = (elapsed.div(priceDecreaseInterval)).mul(priceDecreaseRate);\n            uint _currentPrice = initialPrice > priceDecrease ? initialPrice.sub(priceDecrease) : reservePrice;\n            return _currentPrice > reservePrice ? _currentPrice : reservePrice;\n        } else {\n            return reservePrice;\n        }\n    }\n\n    // Function to buy tokens at the current price\n    function buyTokens() external payable {\n        console.log(\"Seller\");\n        console.log(seller);\n        console.log(block.timestamp);\n        require(block.timestamp <= auctionEndTime, \"Auction has already ended.\");\n        console.log(ended);\n        require(!ended, \"Auction already ended.\");\n        console.log(msg.value);\n        require(msg.value > 0, \"No ether sent\");  // Check if value is greater than zero\n        \n        uint _currentPrice = currentPrice();\n        console.log(_currentPrice);\n        require(_currentPrice > 0, \"Current price is zero\");  // Ensure current price is non-zero\n\n        uint tokensToBuy = msg.value.div(_currentPrice);\n        console.log(tokensToBuy);\n        require(tokensToBuy > 0, \"Insufficient funds to buy tokens\");\n\n        if (tokensToBuy >= totalTokens) {\n            tokensToBuy = totalTokens;\n        }\n\n        // Update bidder's record in the struct\n        if (bidders[msg.sender].investedAmount == 0 && bidders[msg.sender].tokensOwned == 0) {\n            bidderAddresses.push(msg.sender);\n        }\n        bidders[msg.sender].investedAmount = bidders[msg.sender].investedAmount.add(msg.value);\n        bidders[msg.sender].tokensOwned = bidders[msg.sender].tokensOwned.add(tokensToBuy);\n        totalTokens = totalTokens.sub(tokensToBuy);\n        console.log(totalTokens);\n        require(totalTokens >= 0, \"Requested tokens exceed availability\");\n\n        emit TokensPurchased(msg.sender, msg.value, tokensToBuy);\n\n        if (totalTokens == 0 || block.timestamp >= auctionEndTime) {\n            finalizeAuction(_currentPrice);\n        }\n    }\n\n    function resetAuction() external {\n        require(msg.sender == seller, \"Only seller can reset auction\");\n        require(totalTokens > 0 || ended, \"Cannot reset ongoing auction\");\n        isInitialized = false;\n        ended = false;\n        delete finalPrice;\n        delete auctionStartTime;\n        delete auctionEndTime;\n        // Reset bidder data\n        for(uint i = 0; i < bidderAddresses.length; i++) {\n            delete bidders[bidderAddresses[i]];\n        }\n        delete bidderAddresses;\n    }\n\n\n    // Finalize the auction, distribute tokens and refund excess funds\n    function finalizeAuction(uint fP) private {\n        console.log(\"entered finalize auction\");\n        ended = true;\n        finalPrice = fP;\n\n        uint totalTokensSold = 0; // Track total tokens sold to bidders\n        uint totalRevenue = 0; // Track total revenue for seller\n\n        for (uint i = 0; i < bidderAddresses.length; i++) {\n            console.log(i);\n            Bidder storage bidder = bidders[bidderAddresses[i]];\n            console.log(bidder.investedAmount);\n            console.log(bidder.tokensOwned);\n\n            uint totalCost = bidder.tokensOwned.mul(finalPrice);\n            uint refund = bidder.investedAmount > totalCost ? bidder.investedAmount.sub(totalCost) : 0;\n\n            if (refund > 0) {\n                payable(bidderAddresses[i]).transfer(refund);\n            }\n\n            console.log(\"Balance of atk of contract\",auctionToken.balanceOf(address(this)));\n\n            auctionToken.transfer(bidderAddresses[i], bidder.tokensOwned);\n            emit TokensDistributed(bidderAddresses[i], bidder.tokensOwned, refund);\n\n            totalTokensSold = totalTokensSold.add(bidder.tokensOwned);\n            totalRevenue = totalRevenue.add(totalCost);\n        }\n\n        // Transfer the total revenue to the seller\n        payable(seller).transfer(totalRevenue);\n        emit AuctionEnded(finalPrice);\n    }\n\n}\n",
  "sourcePath": "/Users/lakshya/Desktop/NTU_Curriculum/Year 3/Semester 2/SC4053/blockchain-tech-project/SC4053/contracts/DutchAuction.sol",
  "compiler": {
    "name": "solc",
    "version": "0.8.21+commit.d9974bed.Emscripten.clang"
  },
  "schemaVersion": "3.4.16",
  "updatedAt": "2024-11-09T09:44:14.990Z",
  "networkType": "ethereum",
  "devdoc": {
    "kind": "dev",
    "methods": {},
    "version": 1
  },
  "userdoc": {
    "kind": "user",
    "methods": {},
    "version": 1
  }
}