{
  "contractName": "DutchAuction",
  "abi": [
    {
      "inputs": [
        {
          "internalType": "address",
          "name": "_tokenAddress",
          "type": "address"
        },
        {
          "internalType": "uint256",
          "name": "_initialPrice",
          "type": "uint256"
        },
        {
          "internalType": "uint256",
          "name": "_reservePrice",
          "type": "uint256"
        },
        {
          "internalType": "uint256",
          "name": "_priceDecreaseRate",
          "type": "uint256"
        },
        {
          "internalType": "uint256",
          "name": "_priceDecreaseInterval",
          "type": "uint256"
        },
        {
          "internalType": "uint256",
          "name": "_duration",
          "type": "uint256"
        },
        {
          "internalType": "uint256",
          "name": "_totalTokens",
          "type": "uint256"
        }
      ],
      "stateMutability": "nonpayable",
      "type": "constructor"
    },
    {
      "anonymous": false,
      "inputs": [
        {
          "indexed": false,
          "internalType": "uint256",
          "name": "finalPrice",
          "type": "uint256"
        }
      ],
      "name": "AuctionEnded",
      "type": "event"
    },
    {
      "anonymous": false,
      "inputs": [
        {
          "indexed": false,
          "internalType": "address",
          "name": "bidder",
          "type": "address"
        },
        {
          "indexed": false,
          "internalType": "uint256",
          "name": "tokensAllocated",
          "type": "uint256"
        },
        {
          "indexed": false,
          "internalType": "uint256",
          "name": "amountRefunded",
          "type": "uint256"
        }
      ],
      "name": "TokensDistributed",
      "type": "event"
    },
    {
      "anonymous": false,
      "inputs": [
        {
          "indexed": false,
          "internalType": "address",
          "name": "bidder",
          "type": "address"
        },
        {
          "indexed": false,
          "internalType": "uint256",
          "name": "amountInvested",
          "type": "uint256"
        },
        {
          "indexed": false,
          "internalType": "uint256",
          "name": "tokensToBeAllocated",
          "type": "uint256"
        }
      ],
      "name": "TokensPurchased",
      "type": "event"
    },
    {
      "inputs": [],
      "name": "auctionEndTime",
      "outputs": [
        {
          "internalType": "uint256",
          "name": "",
          "type": "uint256"
        }
      ],
      "stateMutability": "view",
      "type": "function",
      "constant": true
    },
    {
      "inputs": [],
      "name": "auctionStartTime",
      "outputs": [
        {
          "internalType": "uint256",
          "name": "",
          "type": "uint256"
        }
      ],
      "stateMutability": "view",
      "type": "function",
      "constant": true
    },
    {
      "inputs": [],
      "name": "auctionToken",
      "outputs": [
        {
          "internalType": "contract AuctionToken",
          "name": "",
          "type": "address"
        }
      ],
      "stateMutability": "view",
      "type": "function",
      "constant": true
    },
    {
      "inputs": [
        {
          "internalType": "address",
          "name": "",
          "type": "address"
        }
      ],
      "name": "bidders",
      "outputs": [
        {
          "internalType": "uint256",
          "name": "investedAmount",
          "type": "uint256"
        },
        {
          "internalType": "uint256",
          "name": "tokensOwned",
          "type": "uint256"
        }
      ],
      "stateMutability": "view",
      "type": "function",
      "constant": true
    },
    {
      "inputs": [],
      "name": "ended",
      "outputs": [
        {
          "internalType": "bool",
          "name": "",
          "type": "bool"
        }
      ],
      "stateMutability": "view",
      "type": "function",
      "constant": true
    },
    {
      "inputs": [],
      "name": "finalPrice",
      "outputs": [
        {
          "internalType": "uint256",
          "name": "",
          "type": "uint256"
        }
      ],
      "stateMutability": "view",
      "type": "function",
      "constant": true
    },
    {
      "inputs": [],
      "name": "initialPrice",
      "outputs": [
        {
          "internalType": "uint256",
          "name": "",
          "type": "uint256"
        }
      ],
      "stateMutability": "view",
      "type": "function",
      "constant": true
    },
    {
      "inputs": [],
      "name": "isInitialized",
      "outputs": [
        {
          "internalType": "bool",
          "name": "",
          "type": "bool"
        }
      ],
      "stateMutability": "view",
      "type": "function",
      "constant": true
    },
    {
      "inputs": [],
      "name": "priceDecreaseInterval",
      "outputs": [
        {
          "internalType": "uint256",
          "name": "",
          "type": "uint256"
        }
      ],
      "stateMutability": "view",
      "type": "function",
      "constant": true
    },
    {
      "inputs": [],
      "name": "priceDecreaseRate",
      "outputs": [
        {
          "internalType": "uint256",
          "name": "",
          "type": "uint256"
        }
      ],
      "stateMutability": "view",
      "type": "function",
      "constant": true
    },
    {
      "inputs": [],
      "name": "reservePrice",
      "outputs": [
        {
          "internalType": "uint256",
          "name": "",
          "type": "uint256"
        }
      ],
      "stateMutability": "view",
      "type": "function",
      "constant": true
    },
    {
      "inputs": [],
      "name": "seller",
      "outputs": [
        {
          "internalType": "address payable",
          "name": "",
          "type": "address"
        }
      ],
      "stateMutability": "view",
      "type": "function",
      "constant": true
    },
    {
      "inputs": [],
      "name": "totalTokens",
      "outputs": [
        {
          "internalType": "uint256",
          "name": "",
          "type": "uint256"
        }
      ],
      "stateMutability": "view",
      "type": "function",
      "constant": true
    },
    {
      "inputs": [
        {
          "internalType": "uint256",
          "name": "_initialPrice",
          "type": "uint256"
        },
        {
          "internalType": "uint256",
          "name": "_reservePrice",
          "type": "uint256"
        },
        {
          "internalType": "uint256",
          "name": "_priceDecreaseRate",
          "type": "uint256"
        },
        {
          "internalType": "uint256",
          "name": "_priceDecreaseInterval",
          "type": "uint256"
        },
        {
          "internalType": "uint256",
          "name": "_duration",
          "type": "uint256"
        },
        {
          "internalType": "uint256",
          "name": "_totalTokens",
          "type": "uint256"
        }
      ],
      "name": "initializeAuction",
      "outputs": [],
      "stateMutability": "nonpayable",
      "type": "function"
    },
    {
      "inputs": [],
      "name": "currentPrice",
      "outputs": [
        {
          "internalType": "uint256",
          "name": "",
          "type": "uint256"
        }
      ],
      "stateMutability": "view",
      "type": "function",
      "constant": true
    },
    {
      "inputs": [],
      "name": "buyTokens",
      "outputs": [],
      "stateMutability": "payable",
      "type": "function",
      "payable": true
    },
    {
      "inputs": [],
      "name": "resetAuction",
      "outputs": [],
      "stateMutability": "nonpayable",
      "type": "function"
    },
    {
      "inputs": [],
      "name": "finalizeAuction",
      "outputs": [],
      "stateMutability": "payable",
      "type": "function",
      "payable": true
    }
  ],
  "bytecode": "0x608060405234801562000010575f80fd5b5060405162002c3038038062002c308339818101604052810190620000369190620001bd565b865f806101000a81548173ffffffffffffffffffffffffffffffffffffffff021916908373ffffffffffffffffffffffffffffffffffffffff1602179055503360015f6101000a81548173ffffffffffffffffffffffffffffffffffffffff021916908373ffffffffffffffffffffffffffffffffffffffff1602179055508560028190555084600381905550836004819055508260058190555042600681905550620000ef826006546200010960201b90919060201c565b6007819055508060088190555050505050505050620002d2565b5f818362000118919062000298565b905092915050565b5f80fd5b5f73ffffffffffffffffffffffffffffffffffffffff82169050919050565b5f6200014f8262000124565b9050919050565b620001618162000143565b81146200016c575f80fd5b50565b5f815190506200017f8162000156565b92915050565b5f819050919050565b620001998162000185565b8114620001a4575f80fd5b50565b5f81519050620001b7816200018e565b92915050565b5f805f805f805f60e0888a031215620001db57620001da62000120565b5b5f620001ea8a828b016200016f565b9750506020620001fd8a828b01620001a7565b9650506040620002108a828b01620001a7565b9550506060620002238a828b01620001a7565b9450506080620002368a828b01620001a7565b93505060a0620002498a828b01620001a7565b92505060c06200025c8a828b01620001a7565b91505092959891949750929550565b7f4e487b71000000000000000000000000000000000000000000000000000000005f52601160045260245ffd5b5f620002a48262000185565b9150620002b18362000185565b9250828201905080821115620002cc57620002cb6200026b565b5b92915050565b61295080620002e05f395ff3fe608060405260043610610108575f3560e01c80639d1b464a11610094578063db2e1eed11610063578063db2e1eed146102f8578063eb54f9ec14610322578063eecb24ec1461034c578063f77282ab14610376578063fcc8f7931461038057610108565b80639d1b464a14610272578063a6b513ee1461029c578063be2b8bcf146102c6578063d0febe4c146102ee57610108565b80634b449cba116100db5780634b449cba146101b45780637cc58a96146101de5780637d350453146102085780637e1c0c091461021e57806399fdb3201461024857610108565b806308551a531461010c57806312fa6feb146101365780631d0806ae14610160578063392e53cd1461018a575b5f80fd5b348015610117575f80fd5b506101206103bd565b60405161012d9190611ed8565b60405180910390f35b348015610141575f80fd5b5061014a6103e2565b6040516101579190611f0b565b60405180910390f35b34801561016b575f80fd5b506101746103f4565b6040516101819190611f3c565b60405180910390f35b348015610195575f80fd5b5061019e6103fa565b6040516101ab9190611f0b565b60405180910390f35b3480156101bf575f80fd5b506101c861040c565b6040516101d59190611f3c565b60405180910390f35b3480156101e9575f80fd5b506101f2610412565b6040516101ff9190611f3c565b60405180910390f35b348015610213575f80fd5b5061021c610418565b005b348015610229575f80fd5b506102326105fc565b60405161023f9190611f3c565b60405180910390f35b348015610253575f80fd5b5061025c610602565b6040516102699190611fb0565b60405180910390f35b34801561027d575f80fd5b50610286610625565b6040516102939190611f3c565b60405180910390f35b3480156102a7575f80fd5b506102b06106c3565b6040516102bd9190611f3c565b60405180910390f35b3480156102d1575f80fd5b506102ec60048036038101906102e79190611ff7565b6106c9565b005b6102f661080e565b005b348015610303575f80fd5b5061030c610e75565b6040516103199190611f3c565b60405180910390f35b34801561032d575f80fd5b50610336610e7b565b6040516103439190611f3c565b60405180910390f35b348015610357575f80fd5b50610360610e81565b60405161036d9190611f3c565b60405180910390f35b61037e610e87565b005b34801561038b575f80fd5b506103a660048036038101906103a191906120bb565b611a02565b6040516103b49291906120e6565b60405180910390f35b60015f9054906101000a900473ffffffffffffffffffffffffffffffffffffffff1681565b60095f9054906101000a900460ff1681565b60025481565b600b5f9054906101000a900460ff1681565b60075481565b60055481565b60015f9054906101000a900473ffffffffffffffffffffffffffffffffffffffff1673ffffffffffffffffffffffffffffffffffffffff163373ffffffffffffffffffffffffffffffffffffffff16146104a7576040517f08c379a000000000000000000000000000000000000000000000000000000000815260040161049e90612167565b60405180910390fd5b5f60085411806104c2575060095f9054906101000a900460ff165b610501576040517f08c379a00000000000000000000000000000000000000000000000000000000081526004016104f8906121cf565b60405180910390fd5b5f600b5f6101000a81548160ff0219169083151502179055505f60095f6101000a81548160ff021916908315150217905550600a5f905560065f905560075f90555f5b600d805490508110156105ec57600c5f600d8381548110610568576105676121ed565b5b905f5260205f20015f9054906101000a900473ffffffffffffffffffffffffffffffffffffffff1673ffffffffffffffffffffffffffffffffffffffff1673ffffffffffffffffffffffffffffffffffffffff1681526020019081526020015f205f8082015f9055600182015f9055505080806105e490612247565b915050610544565b50600d5f6105fa9190611e56565b565b60085481565b5f8054906101000a900473ffffffffffffffffffffffffffffffffffffffff1681565b5f60075442116106ba575f61064560065442611a2290919063ffffffff16565b90505f61067160045461066360055485611a3790919063ffffffff16565b611a4c90919063ffffffff16565b90505f81600254116106855760035461069b565b61069a82600254611a2290919063ffffffff16565b5b905060035481116106ae576003546106b0565b805b93505050506106c0565b60035490505b90565b600a5481565b60015f9054906101000a900473ffffffffffffffffffffffffffffffffffffffff1673ffffffffffffffffffffffffffffffffffffffff163373ffffffffffffffffffffffffffffffffffffffff1614610758576040517f08c379a000000000000000000000000000000000000000000000000000000000815260040161074f906122fe565b60405180910390fd5b600b5f9054906101000a900460ff16156107a7576040517f08c379a000000000000000000000000000000000000000000000000000000000815260040161079e90612366565b60405180910390fd5b85600281905550846003819055508360048190555082600581905550426006819055506107df82600654611a6190919063ffffffff16565b600781905550806008819055506001600b5f6101000a81548160ff021916908315150217905550505050505050565b61084c6040518060400160405280600681526020017f53656c6c65720000000000000000000000000000000000000000000000000000815250611a76565b6109216040518060400160405280601a81526020017f42616c616e6365206f662061746b206f6620636f6e74726163740000000000008152505f8054906101000a900473ffffffffffffffffffffffffffffffffffffffff1673ffffffffffffffffffffffffffffffffffffffff166370a08231306040518263ffffffff1660e01b81526004016108dd9190612393565b602060405180830381865afa1580156108f8573d5f803e3d5ffd5b505050506040513d601f19601f8201168201806040525081019061091c91906123c0565b611b0f565b61094b60015f9054906101000a900473ffffffffffffffffffffffffffffffffffffffff16611bab565b61095442611c44565b600754421115610999576040517f08c379a000000000000000000000000000000000000000000000000000000000815260040161099090612435565b60405180910390fd5b6109b060095f9054906101000a900460ff16611cdd565b60095f9054906101000a900460ff16156109ff576040517f08c379a00000000000000000000000000000000000000000000000000000000081526004016109f69061249d565b60405180910390fd5b610a0834611c44565b5f3411610a4a576040517f08c379a0000000000000000000000000000000000000000000000000000000008152600401610a4190612505565b60405180910390fd5b5f610a53610625565b9050610a5e81611c44565b5f8111610aa0576040517f08c379a0000000000000000000000000000000000000000000000000000000008152600401610a979061256d565b60405180910390fd5b5f610ab48234611a3790919063ffffffff16565b9050610abf81611c44565b6008548110610ace5760085490505b5f600c5f3373ffffffffffffffffffffffffffffffffffffffff1673ffffffffffffffffffffffffffffffffffffffff1681526020019081526020015f205f0154148015610b5b57505f600c5f3373ffffffffffffffffffffffffffffffffffffffff1673ffffffffffffffffffffffffffffffffffffffff1681526020019081526020015f2060010154145b15610bc157600d33908060018154018082558091505060019003905f5260205f20015f9091909190916101000a81548173ffffffffffffffffffffffffffffffffffffffff021916908373ffffffffffffffffffffffffffffffffffffffff1602179055505b610c1334600c5f3373ffffffffffffffffffffffffffffffffffffffff1673ffffffffffffffffffffffffffffffffffffffff1681526020019081526020015f205f0154611a6190919063ffffffff16565b600c5f3373ffffffffffffffffffffffffffffffffffffffff1673ffffffffffffffffffffffffffffffffffffffff1681526020019081526020015f205f0181905550610ca981600c5f3373ffffffffffffffffffffffffffffffffffffffff1673ffffffffffffffffffffffffffffffffffffffff1681526020019081526020015f2060010154611a6190919063ffffffff16565b600c5f3373ffffffffffffffffffffffffffffffffffffffff1673ffffffffffffffffffffffffffffffffffffffff1681526020019081526020015f2060010181905550610d0281600854611a2290919063ffffffff16565b600881905550610d13600854611c44565b5f6008541015610d58576040517f08c379a0000000000000000000000000000000000000000000000000000000008152600401610d4f906125fb565b60405180910390fd5b7f8fafebcaf9d154343dad25669bfa277f4fbacd7ac6b0c4fed522580e040a0f33333483604051610d8b93929190612619565b60405180910390a1610dd26040518060400160405280601081526020017f54696d657374616d7020696e206275790000000000000000000000000000000081525042611b0f565b610e136040518060400160405280601581526020017f61756374696f6e456e6454696d6520696e206275790000000000000000000000815250600754611b0f565b5f6008541480610e2557506007544210155b15610e7157610e32610e87565b610e706040518060400160405280601181526020017f41756374696f6e2046696e616c697a6564000000000000000000000000000000815250611a76565b5b5050565b60035481565b60065481565b60045481565b610ec56040518060400160405280601881526020017f656e74657265642066696e616c697a652061756374696f6e0000000000000000815250611a76565b610f066040518060400160405280600c81526020017f546f74616c20546f6b656e730000000000000000000000000000000000000000815250600854611b0f565b610f456040518060400160405280600b81526020017f43757272656e7454696d6500000000000000000000000000000000000000000081525042611b0f565b610f866040518060400160405280600e81526020017f41756374696f6e456e6454696d65000000000000000000000000000000000000815250600754611b0f565b600160095f6101000a81548160ff021916908315150217905550610fde6040518060400160405280600e81526020017f4665746368696e67205072696365000000000000000000000000000000000000815250611a76565b5f610fe7610625565b90506110286040518060400160405280601581526020017f466574636865642043757272656e74205072696365000000000000000000000081525082611b0f565b5f8061106e6040518060400160405280601181526020017f4e756d626572206f662042696464657273000000000000000000000000000000815250600d80549050611b0f565b5f5b600d8054905081101561178c576110bc6040518060400160405280601581526020017f48616e646c696e672075736572204e756d6265723a000000000000000000000081525082611b0f565b5f600c5f600d84815481106110d4576110d36121ed565b5b905f5260205f20015f9054906101000a900473ffffffffffffffffffffffffffffffffffffffff1673ffffffffffffffffffffffffffffffffffffffff1673ffffffffffffffffffffffffffffffffffffffff1681526020019081526020015f2090506111796040518060400160405280601581526020017f207573657220696e766573746564416d6f756e743a0000000000000000000000815250825f0154611b0f565b6111bc6040518060400160405280601281526020017f207573657220746f6b656e734f776e65643a00000000000000000000000000008152508260010154611b0f565b5f6111d4868360010154611a4c90919063ffffffff16565b90505f81835f0154116111e7575f6111fe565b6111fd82845f0154611a2290919063ffffffff16565b5b90505f811115611467576112476040518060400160405280601781526020017f436f6e74726163742042616c616e6365204265666f726500000000000000000081525047611b0f565b6112d86040518060400160405280601581526020017f4269646465722042616c616e6365204265666f72650000000000000000000000815250600d8681548110611294576112936121ed565b5b905f5260205f20015f9054906101000a900473ffffffffffffffffffffffffffffffffffffffff1673ffffffffffffffffffffffffffffffffffffffff1631611b0f565b6113176040518060400160405280600681526020017f526566756e64000000000000000000000000000000000000000000000000000081525082611b0f565b600d848154811061132b5761132a6121ed565b5b905f5260205f20015f9054906101000a900473ffffffffffffffffffffffffffffffffffffffff1673ffffffffffffffffffffffffffffffffffffffff166108fc8290811502906040515f60405180830381858888f19350505050158015611395573d5f803e3d5ffd5b506113d56040518060400160405280601681526020017f436f6e74726163742042616c616e63652041667465720000000000000000000081525047611b0f565b6114666040518060400160405280601481526020017f4269646465722042616c616e6365204166746572000000000000000000000000815250600d8681548110611422576114216121ed565b5b905f5260205f20015f9054906101000a900473ffffffffffffffffffffffffffffffffffffffff1673ffffffffffffffffffffffffffffffffffffffff1631611b0f565b5b61153c6040518060400160405280601a81526020017f42616c616e6365206f662061746b206f6620636f6e74726163740000000000008152505f8054906101000a900473ffffffffffffffffffffffffffffffffffffffff1673ffffffffffffffffffffffffffffffffffffffff166370a08231306040518263ffffffff1660e01b81526004016114f89190612393565b602060405180830381865afa158015611513573d5f803e3d5ffd5b505050506040513d601f19601f8201168201806040525081019061153791906123c0565b611b0f565b5f8054906101000a900473ffffffffffffffffffffffffffffffffffffffff1673ffffffffffffffffffffffffffffffffffffffff1663a9059cbb600d868154811061158b5761158a6121ed565b5b905f5260205f20015f9054906101000a900473ffffffffffffffffffffffffffffffffffffffff1685600101546040518363ffffffff1660e01b81526004016115d592919061264e565b6020604051808303815f875af11580156115f1573d5f803e3d5ffd5b505050506040513d601f19601f82011682018060405250810190611615919061269f565b507ff75d5c8724380d126d0ce1ef2c57b7e856e7fe00051f6184966b31323463cf12600d858154811061164b5761164a6121ed565b5b905f5260205f20015f9054906101000a900473ffffffffffffffffffffffffffffffffffffffff1684600101548360405161168893929190612619565b60405180910390a16117486040518060600160405280602981526020016128f2602991395f8054906101000a900473ffffffffffffffffffffffffffffffffffffffff1673ffffffffffffffffffffffffffffffffffffffff166370a08231306040518263ffffffff1660e01b81526004016117049190612393565b602060405180830381865afa15801561171f573d5f803e3d5ffd5b505050506040513d601f19601f8201168201806040525081019061174391906123c0565b611b0f565b61175f836001015487611a6190919063ffffffff16565b95506117748286611a6190919063ffffffff16565b9450505050808061178490612247565b915050611070565b506117ed6040518060400160405280600e81526020017f73656c6c6572204164647265737300000000000000000000000000000000000081525060015f9054906101000a900473ffffffffffffffffffffffffffffffffffffffff16611d76565b61182c6040518060400160405280601081526020017f416d6f756e7420746f2073656c6c65720000000000000000000000000000000081525082611b0f565b6118a36040518060400160405280601581526020017f53656c6c65722042616c616e6365204265666f7265000000000000000000000081525060015f9054906101000a900473ffffffffffffffffffffffffffffffffffffffff1673ffffffffffffffffffffffffffffffffffffffff1631611b0f565b6118e26040518060400160405280601781526020017f436f6e74726163742042616c616e6365204265666f726500000000000000000081525047611b0f565b60015f9054906101000a900473ffffffffffffffffffffffffffffffffffffffff1673ffffffffffffffffffffffffffffffffffffffff166108fc8290811502906040515f60405180830381858888f19350505050158015611946573d5f803e3d5ffd5b506119866040518060400160405280601681526020017f436f6e74726163742042616c616e63652041667465720000000000000000000081525047611b0f565b6119fd6040518060400160405280601481526020017f53656c6c65722042616c616e636520416674657200000000000000000000000081525060015f9054906101000a900473ffffffffffffffffffffffffffffffffffffffff1673ffffffffffffffffffffffffffffffffffffffff1631611b0f565b505050565b600c602052805f5260405f205f91509050805f0154908060010154905082565b5f8183611a2f91906126ca565b905092915050565b5f8183611a44919061272a565b905092915050565b5f8183611a59919061275a565b905092915050565b5f8183611a6e919061279b565b905092915050565b611b0c81604051602401611a8a9190612848565b6040516020818303038152906040527f41304fac000000000000000000000000000000000000000000000000000000007bffffffffffffffffffffffffffffffffffffffffffffffffffffffff19166020820180517bffffffffffffffffffffffffffffffffffffffffffffffffffffffff8381831617835250505050611e12565b50565b611ba78282604051602401611b25929190612868565b6040516020818303038152906040527fb60e72cc000000000000000000000000000000000000000000000000000000007bffffffffffffffffffffffffffffffffffffffffffffffffffffffff19166020820180517bffffffffffffffffffffffffffffffffffffffffffffffffffffffff8381831617835250505050611e12565b5050565b611c4181604051602401611bbf9190612393565b6040516020818303038152906040527f2c2ecbc2000000000000000000000000000000000000000000000000000000007bffffffffffffffffffffffffffffffffffffffffffffffffffffffff19166020820180517bffffffffffffffffffffffffffffffffffffffffffffffffffffffff8381831617835250505050611e12565b50565b611cda81604051602401611c589190611f3c565b6040516020818303038152906040527ff82c50f1000000000000000000000000000000000000000000000000000000007bffffffffffffffffffffffffffffffffffffffffffffffffffffffff19166020820180517bffffffffffffffffffffffffffffffffffffffffffffffffffffffff8381831617835250505050611e12565b50565b611d7381604051602401611cf19190611f0b565b6040516020818303038152906040527f32458eed000000000000000000000000000000000000000000000000000000007bffffffffffffffffffffffffffffffffffffffffffffffffffffffff19166020820180517bffffffffffffffffffffffffffffffffffffffffffffffffffffffff8381831617835250505050611e12565b50565b611e0e8282604051602401611d8c929190612896565b6040516020818303038152906040527f319af333000000000000000000000000000000000000000000000000000000007bffffffffffffffffffffffffffffffffffffffffffffffffffffffff19166020820180517bffffffffffffffffffffffffffffffffffffffffffffffffffffffff8381831617835250505050611e12565b5050565b611e2981611e21611e2c611e4b565b63ffffffff16565b50565b5f6a636f6e736f6c652e6c6f6790505f80835160208501845afa505050565b611e74819050919050565b5080545f8255905f5260205f2090810190611e719190611e7e565b50565b611e7c6128c4565b565b5b80821115611e95575f815f905550600101611e7f565b5090565b5f73ffffffffffffffffffffffffffffffffffffffff82169050919050565b5f611ec282611e99565b9050919050565b611ed281611eb8565b82525050565b5f602082019050611eeb5f830184611ec9565b92915050565b5f8115159050919050565b611f0581611ef1565b82525050565b5f602082019050611f1e5f830184611efc565b92915050565b5f819050919050565b611f3681611f24565b82525050565b5f602082019050611f4f5f830184611f2d565b92915050565b5f819050919050565b5f611f78611f73611f6e84611e99565b611f55565b611e99565b9050919050565b5f611f8982611f5e565b9050919050565b5f611f9a82611f7f565b9050919050565b611faa81611f90565b82525050565b5f602082019050611fc35f830184611fa1565b92915050565b5f80fd5b611fd681611f24565b8114611fe0575f80fd5b50565b5f81359050611ff181611fcd565b92915050565b5f805f805f8060c0878903121561201157612010611fc9565b5b5f61201e89828a01611fe3565b965050602061202f89828a01611fe3565b955050604061204089828a01611fe3565b945050606061205189828a01611fe3565b935050608061206289828a01611fe3565b92505060a061207389828a01611fe3565b9150509295509295509295565b5f61208a82611e99565b9050919050565b61209a81612080565b81146120a4575f80fd5b50565b5f813590506120b581612091565b92915050565b5f602082840312156120d0576120cf611fc9565b5b5f6120dd848285016120a7565b91505092915050565b5f6040820190506120f95f830185611f2d565b6121066020830184611f2d565b9392505050565b5f82825260208201905092915050565b7f4f6e6c792073656c6c65722063616e2072657365742061756374696f6e0000005f82015250565b5f612151601d8361210d565b915061215c8261211d565b602082019050919050565b5f6020820190508181035f83015261217e81612145565b9050919050565b7f43616e6e6f74207265736574206f6e676f696e672061756374696f6e000000005f82015250565b5f6121b9601c8361210d565b91506121c482612185565b602082019050919050565b5f6020820190508181035f8301526121e6816121ad565b9050919050565b7f4e487b71000000000000000000000000000000000000000000000000000000005f52603260045260245ffd5b7f4e487b71000000000000000000000000000000000000000000000000000000005f52601160045260245ffd5b5f61225182611f24565b91507fffffffffffffffffffffffffffffffffffffffffffffffffffffffffffffffff82036122835761228261221a565b5b600182019050919050565b7f4f6e6c79207468652073656c6c65722063616e20696e697469616c697a6520745f8201527f68652061756374696f6e00000000000000000000000000000000000000000000602082015250565b5f6122e8602a8361210d565b91506122f38261228e565b604082019050919050565b5f6020820190508181035f830152612315816122dc565b9050919050565b7f41756374696f6e20697320696e697469616c697a6564000000000000000000005f82015250565b5f61235060168361210d565b915061235b8261231c565b602082019050919050565b5f6020820190508181035f83015261237d81612344565b9050919050565b61238d81612080565b82525050565b5f6020820190506123a65f830184612384565b92915050565b5f815190506123ba81611fcd565b92915050565b5f602082840312156123d5576123d4611fc9565b5b5f6123e2848285016123ac565b91505092915050565b7f41756374696f6e2068617320616c726561647920656e6465642e0000000000005f82015250565b5f61241f601a8361210d565b915061242a826123eb565b602082019050919050565b5f6020820190508181035f83015261244c81612413565b9050919050565b7f41756374696f6e20616c726561647920656e6465642e000000000000000000005f82015250565b5f61248760168361210d565b915061249282612453565b602082019050919050565b5f6020820190508181035f8301526124b48161247b565b9050919050565b7f4e6f2065746865722073656e74000000000000000000000000000000000000005f82015250565b5f6124ef600d8361210d565b91506124fa826124bb565b602082019050919050565b5f6020820190508181035f83015261251c816124e3565b9050919050565b7f43757272656e74207072696365206973207a65726f00000000000000000000005f82015250565b5f61255760158361210d565b915061256282612523565b602082019050919050565b5f6020820190508181035f8301526125848161254b565b9050919050565b7f52657175657374656420746f6b656e732065786365656420617661696c6162695f8201527f6c69747900000000000000000000000000000000000000000000000000000000602082015250565b5f6125e560248361210d565b91506125f08261258b565b604082019050919050565b5f6020820190508181035f830152612612816125d9565b9050919050565b5f60608201905061262c5f830186612384565b6126396020830185611f2d565b6126466040830184611f2d565b949350505050565b5f6040820190506126615f830185612384565b61266e6020830184611f2d565b9392505050565b61267e81611ef1565b8114612688575f80fd5b50565b5f8151905061269981612675565b92915050565b5f602082840312156126b4576126b3611fc9565b5b5f6126c18482850161268b565b91505092915050565b5f6126d482611f24565b91506126df83611f24565b92508282039050818111156126f7576126f661221a565b5b92915050565b7f4e487b71000000000000000000000000000000000000000000000000000000005f52601260045260245ffd5b5f61273482611f24565b915061273f83611f24565b92508261274f5761274e6126fd565b5b828204905092915050565b5f61276482611f24565b915061276f83611f24565b925082820261277d81611f24565b915082820484148315176127945761279361221a565b5b5092915050565b5f6127a582611f24565b91506127b083611f24565b92508282019050808211156127c8576127c761221a565b5b92915050565b5f81519050919050565b5f5b838110156127f55780820151818401526020810190506127da565b5f8484015250505050565b5f601f19601f8301169050919050565b5f61281a826127ce565b612824818561210d565b93506128348185602086016127d8565b61283d81612800565b840191505092915050565b5f6020820190508181035f8301526128608184612810565b905092915050565b5f6040820190508181035f8301526128808185612810565b905061288f6020830184611f2d565b9392505050565b5f6040820190508181035f8301526128ae8185612810565b90506128bd6020830184612384565b9392505050565b7f4e487b71000000000000000000000000000000000000000000000000000000005f52605160045260245ffdfe42616c616e6365206f662061746b206f6620636f6e7472616374206166746572207472616e73666572a26469706673582212201bad1ed0a5eaf73cc4b4819314156c6e19fc771227222a7bf47ed26cec5624f564736f6c63430008150033",
  "immutableReferences": {},
  "source": "// SPDX-License-Identifier: MIT\npragma solidity ^0.8.0;\n\nimport \"./AuctionToken.sol\";\nimport \"@openzeppelin/contracts/utils/math/SafeMath.sol\";\nimport \"hardhat/console.sol\";\n\ncontract DutchAuction {\n    using SafeMath for uint;\n\n    AuctionToken public auctionToken;\n    address payable public seller;\n    uint public initialPrice;\n    uint public reservePrice;\n    uint public priceDecreaseRate;\n    uint public priceDecreaseInterval;\n    uint public auctionStartTime;\n    uint public auctionEndTime;\n    uint public totalTokens; // Total tokens available in the auction\n    bool public ended;\n    uint public finalPrice; // This will store the final confirmed price\n    bool public isInitialized;\n\n    struct Bidder {\n        uint investedAmount; // Amount invested by the bidder\n        uint tokensOwned;    // Tokens to be allocated to the bidder\n    }\n\n    mapping(address => Bidder) public bidders;\n    address[] private bidderAddresses;\n\n    event TokensPurchased(address bidder, uint amountInvested, uint tokensToBeAllocated);\n    event TokensDistributed(address bidder, uint tokensAllocated, uint amountRefunded);\n    event AuctionEnded(uint finalPrice);\n\n     constructor(\n        address _tokenAddress,\n        uint _initialPrice,\n        uint _reservePrice,\n        uint _priceDecreaseRate,\n        uint _priceDecreaseInterval,\n        uint _duration,\n        uint _totalTokens\n    ) {\n        auctionToken = AuctionToken(_tokenAddress);\n        seller = payable(msg.sender);\n        initialPrice = _initialPrice;\n        reservePrice = _reservePrice;\n        priceDecreaseRate = _priceDecreaseRate;\n        priceDecreaseInterval = _priceDecreaseInterval;\n        auctionStartTime = block.timestamp;\n        auctionEndTime = auctionStartTime.add(_duration);\n        totalTokens = _totalTokens;\n\n\n        // // Transfer approved tokens from the seller to the contract\n        // require(\n        //     auctionToken.transferFrom(seller, address(this), totalTokens),\n        //     \"Token transfer to contract failed\"\n        // );\n\n    }\n\n    function initializeAuction(\n        uint _initialPrice,\n        uint _reservePrice,\n        uint _priceDecreaseRate,\n        uint _priceDecreaseInterval,\n        uint _duration,\n        uint _totalTokens\n    ) external {\n        require(msg.sender == seller, \"Only the seller can initialize the auction\");\n        require(!isInitialized, \"Auction is initialized\");\n\n        initialPrice = _initialPrice;\n        reservePrice = _reservePrice;\n        priceDecreaseRate = _priceDecreaseRate;\n        priceDecreaseInterval = _priceDecreaseInterval;\n        auctionStartTime = block.timestamp;\n        auctionEndTime = auctionStartTime.add(_duration);\n        totalTokens = _totalTokens;\n        isInitialized = true;\n    }\n\n    // Calculate the current price based on time elapsed and decrease rate\n    function currentPrice() public view returns (uint) {\n        if (block.timestamp <= auctionEndTime) {\n            uint elapsed = block.timestamp.sub(auctionStartTime);\n            uint priceDecrease = (elapsed.div(priceDecreaseInterval)).mul(priceDecreaseRate);\n            uint _currentPrice = initialPrice > priceDecrease ? initialPrice.sub(priceDecrease) : reservePrice;\n            return _currentPrice > reservePrice ? _currentPrice : reservePrice;\n        } else {\n            return reservePrice;\n        }\n    }\n\n    // Function to buy tokens at the current price\n    function buyTokens() external payable {\n        console.log(\"Seller\");\n        console.log(\"Balance of atk of contract\", auctionToken.balanceOf(address(this)));\n\n        console.log(seller);\n        console.log(block.timestamp);\n        require(block.timestamp <= auctionEndTime, \"Auction has already ended.\");\n        console.log(ended);\n        require(!ended, \"Auction already ended.\");\n        console.log(msg.value);\n        require(msg.value > 0, \"No ether sent\");  // Check if value is greater than zero\n        \n        uint _currentPrice = currentPrice();\n        console.log(_currentPrice);\n        require(_currentPrice > 0, \"Current price is zero\");  // Ensure current price is non-zero\n\n        uint tokensToBuy = msg.value.div(_currentPrice);\n        console.log(tokensToBuy);\n        // require(tokensToBuy > 0, \"Insufficient funds to buy tokens\");\n\n        if (tokensToBuy >= totalTokens) {\n            tokensToBuy = totalTokens;\n        }\n\n        // Update bidder's record in the struct\n        if (bidders[msg.sender].investedAmount == 0 && bidders[msg.sender].tokensOwned == 0) {\n            bidderAddresses.push(msg.sender);\n        }\n        bidders[msg.sender].investedAmount = bidders[msg.sender].investedAmount.add(msg.value);\n        bidders[msg.sender].tokensOwned = bidders[msg.sender].tokensOwned.add(tokensToBuy);\n        totalTokens = totalTokens.sub(tokensToBuy);\n        console.log(totalTokens);\n        require(totalTokens >= 0, \"Requested tokens exceed availability\");\n\n        emit TokensPurchased(msg.sender, msg.value, tokensToBuy);\n        console.log(\"Timestamp in buy\", block.timestamp);\n        console.log(\"auctionEndTime in buy\", auctionEndTime);\n        if (totalTokens == 0 || block.timestamp >= auctionEndTime) {\n            finalizeAuction();\n            console.log(\"Auction Finalized\");\n        }\n\n    }\n\n    function resetAuction() external {\n        require(msg.sender == seller, \"Only seller can reset auction\");\n        require(totalTokens > 0 || ended, \"Cannot reset ongoing auction\");\n        isInitialized = false;\n        ended = false;\n        delete finalPrice;\n        delete auctionStartTime;\n        delete auctionEndTime;\n        // Reset bidder data\n        for(uint i = 0; i < bidderAddresses.length; i++) {\n            delete bidders[bidderAddresses[i]];\n        }\n        delete bidderAddresses;\n    }\n\n\n    // Finalize the auction, distribute tokens and refund excess funds\n    function finalizeAuction() public payable{\n        console.log(\"entered finalize auction\");\n        console.log(\"Total Tokens\", totalTokens);\n        console.log(\"CurrentTime\", block.timestamp);\n        console.log(\"AuctionEndTime\", auctionEndTime);\n        \n        // require(totalTokens == 0 || block.timestamp >= auctionEndTime, \"End conditions not met\");\n        ended = true;\n\n        console.log(\"Fetching Price\");\n        uint _finalPrice = currentPrice();\n        console.log(\"Fetched Current Price\", _finalPrice);\n        uint totalTokensSold = 0; // Track total tokens sold to bidders\n        uint totalRevenue = 0; // Track total revenue for seller\n        console.log(\"Number of Bidders\", bidderAddresses.length);\n\n        for (uint i = 0; i < bidderAddresses.length; i++) {\n            console.log(\"Handling user Number:\" , i);\n            Bidder storage bidder = bidders[bidderAddresses[i]];\n            console.log(\" user investedAmount:\", bidder.investedAmount);\n            console.log(\" user tokensOwned:\", bidder.tokensOwned);\n\n            uint totalCost = bidder.tokensOwned.mul(_finalPrice);\n            uint refund = bidder.investedAmount > totalCost ? bidder.investedAmount.sub(totalCost) : 0;\n\n            if (refund > 0) {\n                console.log(\"Contract Balance Before\", (address(this).balance));\n                console.log(\"Bidder Balance Before\", (address(bidderAddresses[i]).balance));\n                console.log(\"Refund\", refund);\n                payable(bidderAddresses[i]).transfer(refund);\n                console.log(\"Contract Balance After\", (address(this).balance));\n                console.log(\"Bidder Balance After\", (address(bidderAddresses[i]).balance));\n            }\n\n            console.log(\"Balance of atk of contract\",auctionToken.balanceOf(address(this)));\n\n            auctionToken.transfer(bidderAddresses[i], bidder.tokensOwned);\n            emit TokensDistributed(bidderAddresses[i], bidder.tokensOwned, refund);\n\n            console.log(\"Balance of atk of contract after transfer\",auctionToken.balanceOf(address(this)));\n\n            totalTokensSold = totalTokensSold.add(bidder.tokensOwned);\n            totalRevenue = totalRevenue.add(totalCost);\n        }\n\n        // Transfer the total revenue to the seller\n        console.log(\"seller Address\", seller);\n        console.log(\"Amount to seller\", totalRevenue);\n        console.log(\"Seller Balance Before\", (address(seller).balance));\n        console.log(\"Contract Balance Before\", (address(this).balance));\n        payable(seller).transfer(totalRevenue);\n        console.log(\"Contract Balance After\", (address(this).balance));\n        console.log(\"Seller Balance After\", (address(seller).balance));\n        // emit AuctionEnded(_finalPrice);\n    }\n\n}\n",
  "sourcePath": "/Users/lakshya/Desktop/NTU_Curriculum/Year 3/Semester 2/SC4053/blockchain-tech-project/SC4053/contracts/DutchAuction.sol",
  "compiler": {
    "name": "solc",
    "version": "0.8.21+commit.d9974bed.Emscripten.clang"
  },
  "schemaVersion": "3.4.16",
  "updatedAt": "2024-11-09T19:27:00.633Z",
  "networkType": "ethereum",
  "devdoc": {
    "kind": "dev",
    "methods": {},
    "version": 1
  },
  "userdoc": {
    "kind": "user",
    "methods": {},
    "version": 1
  }
}