{
  "contractName": "DutchAuction",
  "abi": [
    {
      "inputs": [
        {
          "internalType": "address",
          "name": "_tokenAddress",
          "type": "address"
        },
        {
          "internalType": "uint256",
          "name": "_initialPrice",
          "type": "uint256"
        },
        {
          "internalType": "uint256",
          "name": "_reservePrice",
          "type": "uint256"
        },
        {
          "internalType": "uint256",
          "name": "_priceDecreaseRate",
          "type": "uint256"
        },
        {
          "internalType": "uint256",
          "name": "_priceDecreaseInterval",
          "type": "uint256"
        },
        {
          "internalType": "uint256",
          "name": "_duration",
          "type": "uint256"
        },
        {
          "internalType": "uint256",
          "name": "_totalTokens",
          "type": "uint256"
        }
      ],
      "stateMutability": "nonpayable",
      "type": "constructor"
    },
    {
      "anonymous": false,
      "inputs": [
        {
          "indexed": false,
          "internalType": "uint256",
          "name": "finalPrice",
          "type": "uint256"
        }
      ],
      "name": "AuctionEnded",
      "type": "event"
    },
    {
      "anonymous": false,
      "inputs": [
        {
          "indexed": false,
          "internalType": "address",
          "name": "bidder",
          "type": "address"
        },
        {
          "indexed": false,
          "internalType": "uint256",
          "name": "tokensAllocated",
          "type": "uint256"
        },
        {
          "indexed": false,
          "internalType": "uint256",
          "name": "amountRefunded",
          "type": "uint256"
        }
      ],
      "name": "TokensDistributed",
      "type": "event"
    },
    {
      "anonymous": false,
      "inputs": [
        {
          "indexed": false,
          "internalType": "address",
          "name": "bidder",
          "type": "address"
        },
        {
          "indexed": false,
          "internalType": "uint256",
          "name": "amountInvested",
          "type": "uint256"
        },
        {
          "indexed": false,
          "internalType": "uint256",
          "name": "tokensToBeAllocated",
          "type": "uint256"
        }
      ],
      "name": "TokensPurchased",
      "type": "event"
    },
    {
      "inputs": [],
      "name": "auctionEndTime",
      "outputs": [
        {
          "internalType": "uint256",
          "name": "",
          "type": "uint256"
        }
      ],
      "stateMutability": "view",
      "type": "function",
      "constant": true
    },
    {
      "inputs": [],
      "name": "auctionStartTime",
      "outputs": [
        {
          "internalType": "uint256",
          "name": "",
          "type": "uint256"
        }
      ],
      "stateMutability": "view",
      "type": "function",
      "constant": true
    },
    {
      "inputs": [],
      "name": "auctionToken",
      "outputs": [
        {
          "internalType": "contract AuctionToken",
          "name": "",
          "type": "address"
        }
      ],
      "stateMutability": "view",
      "type": "function",
      "constant": true
    },
    {
      "inputs": [
        {
          "internalType": "address",
          "name": "",
          "type": "address"
        }
      ],
      "name": "bidders",
      "outputs": [
        {
          "internalType": "uint256",
          "name": "investedAmount",
          "type": "uint256"
        },
        {
          "internalType": "uint256",
          "name": "tokensOwned",
          "type": "uint256"
        }
      ],
      "stateMutability": "view",
      "type": "function",
      "constant": true
    },
    {
      "inputs": [],
      "name": "ended",
      "outputs": [
        {
          "internalType": "bool",
          "name": "",
          "type": "bool"
        }
      ],
      "stateMutability": "view",
      "type": "function",
      "constant": true
    },
    {
      "inputs": [],
      "name": "finalPrice",
      "outputs": [
        {
          "internalType": "uint256",
          "name": "",
          "type": "uint256"
        }
      ],
      "stateMutability": "view",
      "type": "function",
      "constant": true
    },
    {
      "inputs": [],
      "name": "initialPrice",
      "outputs": [
        {
          "internalType": "uint256",
          "name": "",
          "type": "uint256"
        }
      ],
      "stateMutability": "view",
      "type": "function",
      "constant": true
    },
    {
      "inputs": [],
      "name": "isInitialized",
      "outputs": [
        {
          "internalType": "bool",
          "name": "",
          "type": "bool"
        }
      ],
      "stateMutability": "view",
      "type": "function",
      "constant": true
    },
    {
      "inputs": [],
      "name": "priceDecreaseInterval",
      "outputs": [
        {
          "internalType": "uint256",
          "name": "",
          "type": "uint256"
        }
      ],
      "stateMutability": "view",
      "type": "function",
      "constant": true
    },
    {
      "inputs": [],
      "name": "priceDecreaseRate",
      "outputs": [
        {
          "internalType": "uint256",
          "name": "",
          "type": "uint256"
        }
      ],
      "stateMutability": "view",
      "type": "function",
      "constant": true
    },
    {
      "inputs": [],
      "name": "reservePrice",
      "outputs": [
        {
          "internalType": "uint256",
          "name": "",
          "type": "uint256"
        }
      ],
      "stateMutability": "view",
      "type": "function",
      "constant": true
    },
    {
      "inputs": [],
      "name": "seller",
      "outputs": [
        {
          "internalType": "address payable",
          "name": "",
          "type": "address"
        }
      ],
      "stateMutability": "view",
      "type": "function",
      "constant": true
    },
    {
      "inputs": [],
      "name": "totalTokens",
      "outputs": [
        {
          "internalType": "uint256",
          "name": "",
          "type": "uint256"
        }
      ],
      "stateMutability": "view",
      "type": "function",
      "constant": true
    },
    {
      "inputs": [
        {
          "internalType": "uint256",
          "name": "_initialPrice",
          "type": "uint256"
        },
        {
          "internalType": "uint256",
          "name": "_reservePrice",
          "type": "uint256"
        },
        {
          "internalType": "uint256",
          "name": "_priceDecreaseRate",
          "type": "uint256"
        },
        {
          "internalType": "uint256",
          "name": "_priceDecreaseInterval",
          "type": "uint256"
        },
        {
          "internalType": "uint256",
          "name": "_duration",
          "type": "uint256"
        },
        {
          "internalType": "uint256",
          "name": "_totalTokens",
          "type": "uint256"
        }
      ],
      "name": "initializeAuction",
      "outputs": [],
      "stateMutability": "nonpayable",
      "type": "function"
    },
    {
      "inputs": [],
      "name": "currentPrice",
      "outputs": [
        {
          "internalType": "uint256",
          "name": "",
          "type": "uint256"
        }
      ],
      "stateMutability": "view",
      "type": "function",
      "constant": true
    },
    {
      "inputs": [],
      "name": "buyTokens",
      "outputs": [],
      "stateMutability": "payable",
      "type": "function",
      "payable": true
    },
    {
      "inputs": [],
      "name": "resetAuction",
      "outputs": [],
      "stateMutability": "nonpayable",
      "type": "function"
    },
    {
      "inputs": [],
      "name": "checkTokenDistribution",
      "outputs": [
        {
          "internalType": "uint256",
          "name": "contractBalance",
          "type": "uint256"
        },
        {
          "internalType": "uint256[]",
          "name": "biddersTokens",
          "type": "uint256[]"
        },
        {
          "internalType": "address[]",
          "name": "bidders",
          "type": "address[]"
        }
      ],
      "stateMutability": "view",
      "type": "function",
      "constant": true
    }
  ],
  "bytecode": "0x608060405234801562000010575f80fd5b50604051620032f7380380620032f783398181016040528101906200003691906200019f565b865f806101000a81548173ffffffffffffffffffffffffffffffffffffffff021916908373ffffffffffffffffffffffffffffffffffffffff1602179055503360015f6101000a81548173ffffffffffffffffffffffffffffffffffffffff021916908373ffffffffffffffffffffffffffffffffffffffff160217905550856002819055508460038190555083600481905550826005819055504260068190555081600654620000e891906200027a565b6007819055508060088190555050505050505050620002b4565b5f80fd5b5f73ffffffffffffffffffffffffffffffffffffffff82169050919050565b5f620001318262000106565b9050919050565b620001438162000125565b81146200014e575f80fd5b50565b5f81519050620001618162000138565b92915050565b5f819050919050565b6200017b8162000167565b811462000186575f80fd5b50565b5f81519050620001998162000170565b92915050565b5f805f805f805f60e0888a031215620001bd57620001bc62000102565b5b5f620001cc8a828b0162000151565b9750506020620001df8a828b0162000189565b9650506040620001f28a828b0162000189565b9550506060620002058a828b0162000189565b9450506080620002188a828b0162000189565b93505060a06200022b8a828b0162000189565b92505060c06200023e8a828b0162000189565b91505092959891949750929550565b7f4e487b71000000000000000000000000000000000000000000000000000000005f52601160045260245ffd5b5f620002868262000167565b9150620002938362000167565b9250828201905080821115620002ae57620002ad6200024d565b5b92915050565b61303580620002c25f395ff3fe608060405260043610610108575f3560e01c806399fdb32011610094578063d0febe4c11610063578063d0febe4c1461031a578063db2e1eed14610324578063eb54f9ec1461034e578063eecb24ec14610378578063fcc8f793146103a257610108565b806399fdb320146102745780639d1b464a1461029e578063a6b513ee146102c8578063be2b8bcf146102f257610108565b8063392e53cd116100db578063392e53cd146101b65780634b449cba146101e05780637cc58a961461020a5780637d350453146102345780637e1c0c091461024a57610108565b806308551a531461010c57806312fa6feb146101365780631d0806ae1461016057806335fcc1f71461018a575b5f80fd5b348015610117575f80fd5b506101206103df565b60405161012d91906122af565b60405180910390f35b348015610141575f80fd5b5061014a610404565b60405161015791906122e2565b60405180910390f35b34801561016b575f80fd5b50610174610416565b6040516101819190612313565b60405180910390f35b348015610195575f80fd5b5061019e61041c565b6040516101ad939291906124ab565b60405180910390f35b3480156101c1575f80fd5b506101ca6106fb565b6040516101d791906122e2565b60405180910390f35b3480156101eb575f80fd5b506101f461070d565b6040516102019190612313565b60405180910390f35b348015610215575f80fd5b5061021e610713565b60405161022b9190612313565b60405180910390f35b34801561023f575f80fd5b50610248610719565b005b348015610255575f80fd5b5061025e6108fd565b60405161026b9190612313565b60405180910390f35b34801561027f575f80fd5b50610288610903565b6040516102959190612549565b60405180910390f35b3480156102a9575f80fd5b506102b2610926565b6040516102bf9190612313565b60405180910390f35b3480156102d3575f80fd5b506102dc6109c4565b6040516102e99190612313565b60405180910390f35b3480156102fd575f80fd5b5061031860048036038101906103139190612590565b6109ca565b005b610322610b0f565b005b34801561032f575f80fd5b506103386110fb565b6040516103459190612313565b60405180910390f35b348015610359575f80fd5b50610362611101565b60405161036f9190612313565b60405180910390f35b348015610383575f80fd5b5061038c611107565b6040516103999190612313565b60405180910390f35b3480156103ad575f80fd5b506103c860048036038101906103c39190612643565b61110d565b6040516103d692919061266e565b60405180910390f35b60015f9054906101000a900473ffffffffffffffffffffffffffffffffffffffff1681565b60095f9054906101000a900460ff1681565b60025481565b5f6060805f8054906101000a900473ffffffffffffffffffffffffffffffffffffffff1673ffffffffffffffffffffffffffffffffffffffff166370a08231306040518263ffffffff1660e01b815260040161047891906126a4565b602060405180830381865afa158015610493573d5f803e3d5ffd5b505050506040513d601f19601f820116820180604052508101906104b791906126d1565b9250600d8054905067ffffffffffffffff8111156104d8576104d76126fc565b5b6040519080825280602002602001820160405280156105065781602001602082028036833780820191505090505b509150600d8054905067ffffffffffffffff811115610528576105276126fc565b5b6040519080825280602002602001820160405280156105565781602001602082028036833780820191505090505b5090505f5b600d805490508110156106f557600d818154811061057c5761057b612729565b5b905f5260205f20015f9054906101000a900473ffffffffffffffffffffffffffffffffffffffff168282815181106105b7576105b6612729565b5b602002602001019073ffffffffffffffffffffffffffffffffffffffff16908173ffffffffffffffffffffffffffffffffffffffff16815250505f8054906101000a900473ffffffffffffffffffffffffffffffffffffffff1673ffffffffffffffffffffffffffffffffffffffff166370a08231600d83815481106106405761063f612729565b5b905f5260205f20015f9054906101000a900473ffffffffffffffffffffffffffffffffffffffff166040518263ffffffff1660e01b815260040161068491906126a4565b602060405180830381865afa15801561069f573d5f803e3d5ffd5b505050506040513d601f19601f820116820180604052508101906106c391906126d1565b8382815181106106d6576106d5612729565b5b60200260200101818152505080806106ed90612783565b91505061055b565b50909192565b600b5f9054906101000a900460ff1681565b60075481565b60055481565b60015f9054906101000a900473ffffffffffffffffffffffffffffffffffffffff1673ffffffffffffffffffffffffffffffffffffffff163373ffffffffffffffffffffffffffffffffffffffff16146107a8576040517f08c379a000000000000000000000000000000000000000000000000000000000815260040161079f90612824565b60405180910390fd5b5f60085411806107c3575060095f9054906101000a900460ff165b610802576040517f08c379a00000000000000000000000000000000000000000000000000000000081526004016107f99061288c565b60405180910390fd5b5f600b5f6101000a81548160ff0219169083151502179055505f60095f6101000a81548160ff021916908315150217905550600a5f905560065f905560075f90555f5b600d805490508110156108ed57600c5f600d838154811061086957610868612729565b5b905f5260205f20015f9054906101000a900473ffffffffffffffffffffffffffffffffffffffff1673ffffffffffffffffffffffffffffffffffffffff1673ffffffffffffffffffffffffffffffffffffffff1681526020019081526020015f205f8082015f9055600182015f9055505080806108e590612783565b915050610845565b50600d5f6108fb919061222d565b565b60085481565b5f8054906101000a900473ffffffffffffffffffffffffffffffffffffffff1681565b5f60075442116109bb575f6109466006544261112d90919063ffffffff16565b90505f6109726004546109646005548561114290919063ffffffff16565b61115790919063ffffffff16565b90505f81600254116109865760035461099c565b61099b8260025461112d90919063ffffffff16565b5b905060035481116109af576003546109b1565b805b93505050506109c1565b60035490505b90565b600a5481565b60015f9054906101000a900473ffffffffffffffffffffffffffffffffffffffff1673ffffffffffffffffffffffffffffffffffffffff163373ffffffffffffffffffffffffffffffffffffffff1614610a59576040517f08c379a0000000000000000000000000000000000000000000000000000000008152600401610a509061291a565b60405180910390fd5b600b5f9054906101000a900460ff1615610aa8576040517f08c379a0000000000000000000000000000000000000000000000000000000008152600401610a9f90612982565b60405180910390fd5b8560028190555084600381905550836004819055508260058190555042600681905550610ae08260065461116c90919063ffffffff16565b600781905550806008819055506001600b5f6101000a81548160ff021916908315150217905550505050505050565b610b4d6040518060400160405280600681526020017f53656c6c65720000000000000000000000000000000000000000000000000000815250611181565b610c226040518060400160405280601a81526020017f42616c616e6365206f662061746b206f6620636f6e74726163740000000000008152505f8054906101000a900473ffffffffffffffffffffffffffffffffffffffff1673ffffffffffffffffffffffffffffffffffffffff166370a08231306040518263ffffffff1660e01b8152600401610bde91906126a4565b602060405180830381865afa158015610bf9573d5f803e3d5ffd5b505050506040513d601f19601f82011682018060405250810190610c1d91906126d1565b61121a565b610c4c60015f9054906101000a900473ffffffffffffffffffffffffffffffffffffffff166112b6565b610c554261134f565b600754421115610c9a576040517f08c379a0000000000000000000000000000000000000000000000000000000008152600401610c91906129ea565b60405180910390fd5b610cb160095f9054906101000a900460ff166113e8565b60095f9054906101000a900460ff1615610d00576040517f08c379a0000000000000000000000000000000000000000000000000000000008152600401610cf790612a52565b60405180910390fd5b610d093461134f565b5f3411610d4b576040517f08c379a0000000000000000000000000000000000000000000000000000000008152600401610d4290612aba565b60405180910390fd5b5f610d54610926565b9050610d5f8161134f565b5f8111610da1576040517f08c379a0000000000000000000000000000000000000000000000000000000008152600401610d9890612b22565b60405180910390fd5b5f610db5823461114290919063ffffffff16565b9050610dc08161134f565b5f8111610e02576040517f08c379a0000000000000000000000000000000000000000000000000000000008152600401610df990612b8a565b60405180910390fd5b6008548110610e115760085490505b5f600c5f3373ffffffffffffffffffffffffffffffffffffffff1673ffffffffffffffffffffffffffffffffffffffff1681526020019081526020015f205f0154148015610e9e57505f600c5f3373ffffffffffffffffffffffffffffffffffffffff1673ffffffffffffffffffffffffffffffffffffffff1681526020019081526020015f2060010154145b15610f0457600d33908060018154018082558091505060019003905f5260205f20015f9091909190916101000a81548173ffffffffffffffffffffffffffffffffffffffff021916908373ffffffffffffffffffffffffffffffffffffffff1602179055505b610f5634600c5f3373ffffffffffffffffffffffffffffffffffffffff1673ffffffffffffffffffffffffffffffffffffffff1681526020019081526020015f205f015461116c90919063ffffffff16565b600c5f3373ffffffffffffffffffffffffffffffffffffffff1673ffffffffffffffffffffffffffffffffffffffff1681526020019081526020015f205f0181905550610fec81600c5f3373ffffffffffffffffffffffffffffffffffffffff1673ffffffffffffffffffffffffffffffffffffffff1681526020019081526020015f206001015461116c90919063ffffffff16565b600c5f3373ffffffffffffffffffffffffffffffffffffffff1673ffffffffffffffffffffffffffffffffffffffff1681526020019081526020015f20600101819055506110458160085461112d90919063ffffffff16565b60088190555061105660085461134f565b5f600854101561109b576040517f08c379a000000000000000000000000000000000000000000000000000000000815260040161109290612c18565b60405180910390fd5b7f8fafebcaf9d154343dad25669bfa277f4fbacd7ac6b0c4fed522580e040a0f333334836040516110ce93929190612c36565b60405180910390a15f60085414806110e857506007544210155b156110f7576110f682611481565b5b5050565b60035481565b60065481565b60045481565b600c602052805f5260405f205f91509050805f0154908060010154905082565b5f818361113a9190612c6b565b905092915050565b5f818361114f9190612ccb565b905092915050565b5f81836111649190612cfb565b905092915050565b5f81836111799190612d3c565b905092915050565b611217816040516024016111959190612de9565b6040516020818303038152906040527f41304fac000000000000000000000000000000000000000000000000000000007bffffffffffffffffffffffffffffffffffffffffffffffffffffffff19166020820180517bffffffffffffffffffffffffffffffffffffffffffffffffffffffff838183161783525050505061214d565b50565b6112b28282604051602401611230929190612e09565b6040516020818303038152906040527fb60e72cc000000000000000000000000000000000000000000000000000000007bffffffffffffffffffffffffffffffffffffffffffffffffffffffff19166020820180517bffffffffffffffffffffffffffffffffffffffffffffffffffffffff838183161783525050505061214d565b5050565b61134c816040516024016112ca91906126a4565b6040516020818303038152906040527f2c2ecbc2000000000000000000000000000000000000000000000000000000007bffffffffffffffffffffffffffffffffffffffffffffffffffffffff19166020820180517bffffffffffffffffffffffffffffffffffffffffffffffffffffffff838183161783525050505061214d565b50565b6113e5816040516024016113639190612313565b6040516020818303038152906040527ff82c50f1000000000000000000000000000000000000000000000000000000007bffffffffffffffffffffffffffffffffffffffffffffffffffffffff19166020820180517bffffffffffffffffffffffffffffffffffffffffffffffffffffffff838183161783525050505061214d565b50565b61147e816040516024016113fc91906122e2565b6040516020818303038152906040527f32458eed000000000000000000000000000000000000000000000000000000007bffffffffffffffffffffffffffffffffffffffffffffffffffffffff19166020820180517bffffffffffffffffffffffffffffffffffffffffffffffffffffffff838183161783525050505061214d565b50565b6114bf6040518060400160405280601e81526020017f3d3d3d2046494e414c495a452041554354494f4e205354415254203d3d3d0000815250611181565b6115946040518060400160405280601f81526020017f496e697469616c20636f6e747261637420746f6b656e2062616c616e63653a008152505f8054906101000a900473ffffffffffffffffffffffffffffffffffffffff1673ffffffffffffffffffffffffffffffffffffffff166370a08231306040518263ffffffff1660e01b815260040161155091906126a4565b602060405180830381865afa15801561156b573d5f803e3d5ffd5b505050506040513d601f19601f8201168201806040525081019061158f91906126d1565b61121a565b600160095f6101000a81548160ff02191690831515021790555080600a819055505f805f5b600d80549050811015611ed0576116056040518060400160405280601181526020017f50726f63657373696e67206269646465720000000000000000000000000000008152508261121a565b5f600c5f600d848154811061161d5761161c612729565b5b905f5260205f20015f9054906101000a900473ffffffffffffffffffffffffffffffffffffffff1673ffffffffffffffffffffffffffffffffffffffff1673ffffffffffffffffffffffffffffffffffffffff1681526020019081526020015f2090506116fa6040518060400160405280600f81526020017f42696464657220616464726573733a0000000000000000000000000000000000815250600d84815481106116cd576116cc612729565b5b905f5260205f20015f9054906101000a900473ffffffffffffffffffffffffffffffffffffffff16612167565b61173c6040518060400160405280601081526020017f496e76657374656420616d6f756e743a00000000000000000000000000000000815250825f015461121a565b61177f6040518060400160405280601281526020017f546f6b656e7320746f20726563656976653a0000000000000000000000000000815250826001015461121a565b5f611799600a54836001015461115790919063ffffffff16565b90505f81835f0154116117ac575f6117c3565b6117c282845f015461112d90919063ffffffff16565b5b90505f81111561188c5761180c6040518060400160405280601181526020017f526566756e64696e6720616d6f756e743a0000000000000000000000000000008152508261121a565b600d84815481106118205761181f612729565b5b905f5260205f20015f9054906101000a900473ffffffffffffffffffffffffffffffffffffffff1673ffffffffffffffffffffffffffffffffffffffff166108fc8290811502906040515f60405180830381858888f1935050505015801561188a573d5f803e3d5ffd5b505b5f805f9054906101000a900473ffffffffffffffffffffffffffffffffffffffff1673ffffffffffffffffffffffffffffffffffffffff166370a08231306040518263ffffffff1660e01b81526004016118e691906126a4565b602060405180830381865afa158015611901573d5f803e3d5ffd5b505050506040513d601f19601f8201168201806040525081019061192591906126d1565b90505f805f9054906101000a900473ffffffffffffffffffffffffffffffffffffffff1673ffffffffffffffffffffffffffffffffffffffff166370a08231600d888154811061197857611977612729565b5b905f5260205f20015f9054906101000a900473ffffffffffffffffffffffffffffffffffffffff166040518263ffffffff1660e01b81526004016119bc91906126a4565b602060405180830381865afa1580156119d7573d5f803e3d5ffd5b505050506040513d601f19601f820116820180604052508101906119fb91906126d1565b9050611a1f604051806060016040528060218152602001612fdf602191398361121a565b611a5e6040518060400160405280601f81526020017f4269646465722062616c616e6365206265666f7265207472616e736665723a008152508261121a565b5f8054906101000a900473ffffffffffffffffffffffffffffffffffffffff1673ffffffffffffffffffffffffffffffffffffffff1663a9059cbb600d8881548110611aad57611aac612729565b5b905f5260205f20015f9054906101000a900473ffffffffffffffffffffffffffffffffffffffff1687600101546040518363ffffffff1660e01b8152600401611af7929190612e37565b6020604051808303815f875af1158015611b13573d5f803e3d5ffd5b505050506040513d601f19601f82011682018060405250810190611b379190612e88565b611b76576040517f08c379a0000000000000000000000000000000000000000000000000000000008152600401611b6d90612efd565b60405180910390fd5b5f805f9054906101000a900473ffffffffffffffffffffffffffffffffffffffff1673ffffffffffffffffffffffffffffffffffffffff166370a08231306040518263ffffffff1660e01b8152600401611bd091906126a4565b602060405180830381865afa158015611beb573d5f803e3d5ffd5b505050506040513d601f19601f82011682018060405250810190611c0f91906126d1565b90505f805f9054906101000a900473ffffffffffffffffffffffffffffffffffffffff1673ffffffffffffffffffffffffffffffffffffffff166370a08231600d8a81548110611c6257611c61612729565b5b905f5260205f20015f9054906101000a900473ffffffffffffffffffffffffffffffffffffffff166040518263ffffffff1660e01b8152600401611ca691906126a4565b602060405180830381865afa158015611cc1573d5f803e3d5ffd5b505050506040513d601f19601f82011682018060405250810190611ce591906126d1565b9050611d266040518060400160405280602081526020017f436f6e74726163742062616c616e6365206166746572207472616e736665723a8152508361121a565b611d656040518060400160405280601e81526020017f4269646465722062616c616e6365206166746572207472616e736665723a00008152508261121a565b611db66040518060400160405280600f81526020017f42616c616e6365206368616e67653a0000000000000000000000000000000000815250611db1858461112d90919063ffffffff16565b61121a565b8660010154611dce848361112d90919063ffffffff16565b14611e0e576040517f08c379a0000000000000000000000000000000000000000000000000000000008152600401611e0590612f65565b60405180910390fd5b7ff75d5c8724380d126d0ce1ef2c57b7e856e7fe00051f6184966b31323463cf12600d8981548110611e4357611e42612729565b5b905f5260205f20015f9054906101000a900473ffffffffffffffffffffffffffffffffffffffff16886001015487604051611e8093929190612c36565b60405180910390a1611e9f87600101548b61116c90919063ffffffff16565b9950611eb4868a61116c90919063ffffffff16565b9850505050505050508080611ec890612783565b9150506115b9565b50611f0f6040518060400160405280601781526020017f3d3d3d2041554354494f4e2053554d4d415259203d3d3d000000000000000000815250611181565b611f4e6040518060400160405280601281526020017f546f74616c20746f6b656e7320736f6c643a00000000000000000000000000008152508361121a565b611f8d6040518060400160405280600e81526020017f546f74616c20726576656e75653a0000000000000000000000000000000000008152508261121a565b6120626040518060400160405280601d81526020017f46696e616c20636f6e747261637420746f6b656e2062616c616e63653a0000008152505f8054906101000a900473ffffffffffffffffffffffffffffffffffffffff1673ffffffffffffffffffffffffffffffffffffffff166370a08231306040518263ffffffff1660e01b815260040161201e91906126a4565b602060405180830381865afa158015612039573d5f803e3d5ffd5b505050506040513d601f19601f8201168201806040525081019061205d91906126d1565b61121a565b5f81111561210f576120a96040518060400160405280601f81526020017f5472616e7366657272696e6720726576656e756520746f2073656c6c65723a008152508261121a565b60015f9054906101000a900473ffffffffffffffffffffffffffffffffffffffff1673ffffffffffffffffffffffffffffffffffffffff166108fc8290811502906040515f60405180830381858888f1935050505015801561210d573d5f803e3d5ffd5b505b7f45806e512b1f4f10e33e8b3cb64d1d11d998d8c554a95e0841fc1c701278bd5d600a546040516121409190612313565b60405180910390a1505050565b6121648161215c612203612222565b63ffffffff16565b50565b6121ff828260405160240161217d929190612f83565b6040516020818303038152906040527f319af333000000000000000000000000000000000000000000000000000000007bffffffffffffffffffffffffffffffffffffffffffffffffffffffff19166020820180517bffffffffffffffffffffffffffffffffffffffffffffffffffffffff838183161783525050505061214d565b5050565b5f6a636f6e736f6c652e6c6f6790505f80835160208501845afa505050565b61224b819050919050565b5080545f8255905f5260205f20908101906122489190612255565b50565b612253612fb1565b565b5b8082111561226c575f815f905550600101612256565b5090565b5f73ffffffffffffffffffffffffffffffffffffffff82169050919050565b5f61229982612270565b9050919050565b6122a98161228f565b82525050565b5f6020820190506122c25f8301846122a0565b92915050565b5f8115159050919050565b6122dc816122c8565b82525050565b5f6020820190506122f55f8301846122d3565b92915050565b5f819050919050565b61230d816122fb565b82525050565b5f6020820190506123265f830184612304565b92915050565b5f81519050919050565b5f82825260208201905092915050565b5f819050602082019050919050565b61235e816122fb565b82525050565b5f61236f8383612355565b60208301905092915050565b5f602082019050919050565b5f6123918261232c565b61239b8185612336565b93506123a683612346565b805f5b838110156123d65781516123bd8882612364565b97506123c88361237b565b9250506001810190506123a9565b5085935050505092915050565b5f81519050919050565b5f82825260208201905092915050565b5f819050602082019050919050565b5f61241682612270565b9050919050565b6124268161240c565b82525050565b5f612437838361241d565b60208301905092915050565b5f602082019050919050565b5f612459826123e3565b61246381856123ed565b935061246e836123fd565b805f5b8381101561249e578151612485888261242c565b975061249083612443565b925050600181019050612471565b5085935050505092915050565b5f6060820190506124be5f830186612304565b81810360208301526124d08185612387565b905081810360408301526124e4818461244f565b9050949350505050565b5f819050919050565b5f61251161250c61250784612270565b6124ee565b612270565b9050919050565b5f612522826124f7565b9050919050565b5f61253382612518565b9050919050565b61254381612529565b82525050565b5f60208201905061255c5f83018461253a565b92915050565b5f80fd5b61256f816122fb565b8114612579575f80fd5b50565b5f8135905061258a81612566565b92915050565b5f805f805f8060c087890312156125aa576125a9612562565b5b5f6125b789828a0161257c565b96505060206125c889828a0161257c565b95505060406125d989828a0161257c565b94505060606125ea89828a0161257c565b93505060806125fb89828a0161257c565b92505060a061260c89828a0161257c565b9150509295509295509295565b6126228161240c565b811461262c575f80fd5b50565b5f8135905061263d81612619565b92915050565b5f6020828403121561265857612657612562565b5b5f6126658482850161262f565b91505092915050565b5f6040820190506126815f830185612304565b61268e6020830184612304565b9392505050565b61269e8161240c565b82525050565b5f6020820190506126b75f830184612695565b92915050565b5f815190506126cb81612566565b92915050565b5f602082840312156126e6576126e5612562565b5b5f6126f3848285016126bd565b91505092915050565b7f4e487b71000000000000000000000000000000000000000000000000000000005f52604160045260245ffd5b7f4e487b71000000000000000000000000000000000000000000000000000000005f52603260045260245ffd5b7f4e487b71000000000000000000000000000000000000000000000000000000005f52601160045260245ffd5b5f61278d826122fb565b91507fffffffffffffffffffffffffffffffffffffffffffffffffffffffffffffffff82036127bf576127be612756565b5b600182019050919050565b5f82825260208201905092915050565b7f4f6e6c792073656c6c65722063616e2072657365742061756374696f6e0000005f82015250565b5f61280e601d836127ca565b9150612819826127da565b602082019050919050565b5f6020820190508181035f83015261283b81612802565b9050919050565b7f43616e6e6f74207265736574206f6e676f696e672061756374696f6e000000005f82015250565b5f612876601c836127ca565b915061288182612842565b602082019050919050565b5f6020820190508181035f8301526128a38161286a565b9050919050565b7f4f6e6c79207468652073656c6c65722063616e20696e697469616c697a6520745f8201527f68652061756374696f6e00000000000000000000000000000000000000000000602082015250565b5f612904602a836127ca565b915061290f826128aa565b604082019050919050565b5f6020820190508181035f830152612931816128f8565b9050919050565b7f41756374696f6e20697320696e697469616c697a6564000000000000000000005f82015250565b5f61296c6016836127ca565b915061297782612938565b602082019050919050565b5f6020820190508181035f83015261299981612960565b9050919050565b7f41756374696f6e2068617320616c726561647920656e6465642e0000000000005f82015250565b5f6129d4601a836127ca565b91506129df826129a0565b602082019050919050565b5f6020820190508181035f830152612a01816129c8565b9050919050565b7f41756374696f6e20616c726561647920656e6465642e000000000000000000005f82015250565b5f612a3c6016836127ca565b9150612a4782612a08565b602082019050919050565b5f6020820190508181035f830152612a6981612a30565b9050919050565b7f4e6f2065746865722073656e74000000000000000000000000000000000000005f82015250565b5f612aa4600d836127ca565b9150612aaf82612a70565b602082019050919050565b5f6020820190508181035f830152612ad181612a98565b9050919050565b7f43757272656e74207072696365206973207a65726f00000000000000000000005f82015250565b5f612b0c6015836127ca565b9150612b1782612ad8565b602082019050919050565b5f6020820190508181035f830152612b3981612b00565b9050919050565b7f496e73756666696369656e742066756e647320746f2062757920746f6b656e735f82015250565b5f612b746020836127ca565b9150612b7f82612b40565b602082019050919050565b5f6020820190508181035f830152612ba181612b68565b9050919050565b7f52657175657374656420746f6b656e732065786365656420617661696c6162695f8201527f6c69747900000000000000000000000000000000000000000000000000000000602082015250565b5f612c026024836127ca565b9150612c0d82612ba8565b604082019050919050565b5f6020820190508181035f830152612c2f81612bf6565b9050919050565b5f606082019050612c495f830186612695565b612c566020830185612304565b612c636040830184612304565b949350505050565b5f612c75826122fb565b9150612c80836122fb565b9250828203905081811115612c9857612c97612756565b5b92915050565b7f4e487b71000000000000000000000000000000000000000000000000000000005f52601260045260245ffd5b5f612cd5826122fb565b9150612ce0836122fb565b925082612cf057612cef612c9e565b5b828204905092915050565b5f612d05826122fb565b9150612d10836122fb565b9250828202612d1e816122fb565b91508282048414831517612d3557612d34612756565b5b5092915050565b5f612d46826122fb565b9150612d51836122fb565b9250828201905080821115612d6957612d68612756565b5b92915050565b5f81519050919050565b5f5b83811015612d96578082015181840152602081019050612d7b565b5f8484015250505050565b5f601f19601f8301169050919050565b5f612dbb82612d6f565b612dc581856127ca565b9350612dd5818560208601612d79565b612dde81612da1565b840191505092915050565b5f6020820190508181035f830152612e018184612db1565b905092915050565b5f6040820190508181035f830152612e218185612db1565b9050612e306020830184612304565b9392505050565b5f604082019050612e4a5f830185612695565b612e576020830184612304565b9392505050565b612e67816122c8565b8114612e71575f80fd5b50565b5f81519050612e8281612e5e565b92915050565b5f60208284031215612e9d57612e9c612562565b5b5f612eaa84828501612e74565b91505092915050565b7f546f6b656e207472616e73666572206661696c656400000000000000000000005f82015250565b5f612ee76015836127ca565b9150612ef282612eb3565b602082019050919050565b5f6020820190508181035f830152612f1481612edb565b9050919050565b7f546f6b656e207472616e7366657220616d6f756e74206d69736d6174636800005f82015250565b5f612f4f601e836127ca565b9150612f5a82612f1b565b602082019050919050565b5f6020820190508181035f830152612f7c81612f43565b9050919050565b5f6040820190508181035f830152612f9b8185612db1565b9050612faa6020830184612695565b9392505050565b7f4e487b71000000000000000000000000000000000000000000000000000000005f52605160045260245ffdfe436f6e74726163742062616c616e6365206265666f7265207472616e736665723aa26469706673582212207a42237d8b3f566feb01774b8145b1f1df10629826c2f666c0517ba67508cd9b64736f6c63430008150033",
  "immutableReferences": {},
  "source": "// SPDX-License-Identifier: MIT\npragma solidity ^0.8.0;\n\nimport \"./AuctionToken.sol\";\nimport \"@openzeppelin/contracts/utils/math/SafeMath.sol\";\nimport \"hardhat/console.sol\";\n\ncontract DutchAuction {\n    using SafeMath for uint;\n\n    AuctionToken public auctionToken;\n    address payable public seller;\n    uint public initialPrice;\n    uint public reservePrice;\n    uint public priceDecreaseRate;\n    uint public priceDecreaseInterval;\n    uint public auctionStartTime;\n    uint public auctionEndTime;\n    uint public totalTokens; // Total tokens available in the auction\n    bool public ended;\n    uint public finalPrice; // This will store the final confirmed price\n    bool public isInitialized;\n\n    struct Bidder {\n        uint investedAmount; // Amount invested by the bidder\n        uint tokensOwned;    // Tokens to be allocated to the bidder\n    }\n\n    mapping(address => Bidder) public bidders;\n    address[] private bidderAddresses;\n\n    event TokensPurchased(address bidder, uint amountInvested, uint tokensToBeAllocated);\n    event TokensDistributed(address bidder, uint tokensAllocated, uint amountRefunded);\n    event AuctionEnded(uint finalPrice);\n\n     constructor(\n        address _tokenAddress,\n        uint _initialPrice,\n        uint _reservePrice,\n        uint _priceDecreaseRate,\n        uint _priceDecreaseInterval,\n        uint _duration,\n        uint _totalTokens\n    ) {\n        auctionToken = AuctionToken(_tokenAddress);\n        seller = payable(msg.sender);\n        initialPrice = _initialPrice;\n        reservePrice = _reservePrice;\n        priceDecreaseRate = _priceDecreaseRate;\n        priceDecreaseInterval = _priceDecreaseInterval;\n        auctionStartTime = block.timestamp;\n        auctionEndTime = auctionStartTime + _duration;\n        totalTokens = _totalTokens;\n\n\n        // // Transfer approved tokens from the seller to the contract\n        // require(\n        //     auctionToken.transferFrom(seller, address(this), totalTokens),\n        //     \"Token transfer to contract failed\"\n        // );\n\n    }\n\n    function initializeAuction(\n        uint _initialPrice,\n        uint _reservePrice,\n        uint _priceDecreaseRate,\n        uint _priceDecreaseInterval,\n        uint _duration,\n        uint _totalTokens\n    ) external {\n        require(msg.sender == seller, \"Only the seller can initialize the auction\");\n        require(!isInitialized, \"Auction is initialized\");\n\n        initialPrice = _initialPrice;\n        reservePrice = _reservePrice;\n        priceDecreaseRate = _priceDecreaseRate;\n        priceDecreaseInterval = _priceDecreaseInterval;\n        auctionStartTime = block.timestamp;\n        auctionEndTime = auctionStartTime.add(_duration);\n        totalTokens = _totalTokens;\n        isInitialized = true;\n    }\n\n    // Calculate the current price based on time elapsed and decrease rate\n    function currentPrice() public view returns (uint) {\n        if (block.timestamp <= auctionEndTime) {\n            uint elapsed = block.timestamp.sub(auctionStartTime);\n            uint priceDecrease = (elapsed.div(priceDecreaseInterval)).mul(priceDecreaseRate);\n            uint _currentPrice = initialPrice > priceDecrease ? initialPrice.sub(priceDecrease) : reservePrice;\n            return _currentPrice > reservePrice ? _currentPrice : reservePrice;\n        } else {\n            return reservePrice;\n        }\n    }\n\n    // Function to buy tokens at the current price\n    function buyTokens() external payable {\n        console.log(\"Seller\");\n        console.log(\"Balance of atk of contract\",auctionToken.balanceOf(address(this)));\n\n        console.log(seller);\n        console.log(block.timestamp);\n        require(block.timestamp <= auctionEndTime, \"Auction has already ended.\");\n        console.log(ended);\n        require(!ended, \"Auction already ended.\");\n        console.log(msg.value);\n        require(msg.value > 0, \"No ether sent\");  // Check if value is greater than zero\n        \n        uint _currentPrice = currentPrice();\n        console.log(_currentPrice);\n        require(_currentPrice > 0, \"Current price is zero\");  // Ensure current price is non-zero\n\n        uint tokensToBuy = msg.value.div(_currentPrice);\n        console.log(tokensToBuy);\n        require(tokensToBuy > 0, \"Insufficient funds to buy tokens\");\n\n        if (tokensToBuy >= totalTokens) {\n            tokensToBuy = totalTokens;\n        }\n\n        // Update bidder's record in the struct\n        if (bidders[msg.sender].investedAmount == 0 && bidders[msg.sender].tokensOwned == 0) {\n            bidderAddresses.push(msg.sender);\n        }\n        bidders[msg.sender].investedAmount = bidders[msg.sender].investedAmount.add(msg.value);\n        bidders[msg.sender].tokensOwned = bidders[msg.sender].tokensOwned.add(tokensToBuy);\n        totalTokens = totalTokens.sub(tokensToBuy);\n        console.log(totalTokens);\n        require(totalTokens >= 0, \"Requested tokens exceed availability\");\n\n        emit TokensPurchased(msg.sender, msg.value, tokensToBuy);\n\n        if (totalTokens == 0 || block.timestamp >= auctionEndTime) {\n            finalizeAuction(_currentPrice);\n        }\n    }\n\n    function resetAuction() external {\n        require(msg.sender == seller, \"Only seller can reset auction\");\n        require(totalTokens > 0 || ended, \"Cannot reset ongoing auction\");\n        isInitialized = false;\n        ended = false;\n        delete finalPrice;\n        delete auctionStartTime;\n        delete auctionEndTime;\n        // Reset bidder data\n        for(uint i = 0; i < bidderAddresses.length; i++) {\n            delete bidders[bidderAddresses[i]];\n        }\n        delete bidderAddresses;\n    }\n\n\n    // Finalize the auction, distribute tokens and refund excess funds\n    function finalizeAuction(uint fP) private {\n        console.log(\"=== FINALIZE AUCTION START ===\");\n        console.log(\"Initial contract token balance:\", auctionToken.balanceOf(address(this)));\n        \n        ended = true;\n        finalPrice = fP;\n\n        uint totalTokensSold = 0;\n        uint totalRevenue = 0;\n\n        for (uint i = 0; i < bidderAddresses.length; i++) {\n            console.log(\"Processing bidder\", i);\n            Bidder storage bidder = bidders[bidderAddresses[i]];\n            \n            console.log(\"Bidder address:\", bidderAddresses[i]);\n            console.log(\"Invested amount:\", bidder.investedAmount);\n            console.log(\"Tokens to receive:\", bidder.tokensOwned);\n\n            // Calculate costs and refunds\n            uint totalCost = bidder.tokensOwned.mul(finalPrice);\n            uint refund = bidder.investedAmount > totalCost ? \n                bidder.investedAmount.sub(totalCost) : 0;\n\n            // Process refund if needed\n            if (refund > 0) {\n                console.log(\"Refunding amount:\", refund);\n                payable(bidderAddresses[i]).transfer(refund);\n            }\n\n            // Check balances before transfer\n            uint contractBalanceBefore = auctionToken.balanceOf(address(this));\n            uint bidderBalanceBefore = auctionToken.balanceOf(bidderAddresses[i]);\n            console.log(\"Contract balance before transfer:\", contractBalanceBefore);\n            console.log(\"Bidder balance before transfer:\", bidderBalanceBefore);\n\n            // Attempt token transfer\n            require(\n                auctionToken.transfer(bidderAddresses[i], bidder.tokensOwned),\n                \"Token transfer failed\"\n            );\n\n            // Verify transfer success\n            uint contractBalanceAfter = auctionToken.balanceOf(address(this));\n            uint bidderBalanceAfter = auctionToken.balanceOf(bidderAddresses[i]);\n            console.log(\"Contract balance after transfer:\", contractBalanceAfter);\n            console.log(\"Bidder balance after transfer:\", bidderBalanceAfter);\n            console.log(\"Balance change:\", bidderBalanceAfter.sub(bidderBalanceBefore));\n\n            // Verify correct amount was transferred\n            require(\n                bidderBalanceAfter.sub(bidderBalanceBefore) == bidder.tokensOwned,\n                \"Token transfer amount mismatch\"\n            );\n\n            emit TokensDistributed(bidderAddresses[i], bidder.tokensOwned, refund);\n\n            totalTokensSold = totalTokensSold.add(bidder.tokensOwned);\n            totalRevenue = totalRevenue.add(totalCost);\n        }\n\n        console.log(\"=== AUCTION SUMMARY ===\");\n        console.log(\"Total tokens sold:\", totalTokensSold);\n        console.log(\"Total revenue:\", totalRevenue);\n        console.log(\"Final contract token balance:\", auctionToken.balanceOf(address(this)));\n\n        // Transfer revenue to seller\n        if (totalRevenue > 0) {\n            console.log(\"Transferring revenue to seller:\", totalRevenue);\n            payable(seller).transfer(totalRevenue);\n        }\n\n        emit AuctionEnded(finalPrice);\n    }\n\n    function checkTokenDistribution() public view returns (\n        uint contractBalance,\n        uint[] memory biddersTokens,\n        address[] memory bidders\n    ) {\n        contractBalance = auctionToken.balanceOf(address(this));\n        biddersTokens = new uint[](bidderAddresses.length);\n        bidders = new address[](bidderAddresses.length);\n        \n        for (uint i = 0; i < bidderAddresses.length; i++) {\n            bidders[i] = bidderAddresses[i];\n            biddersTokens[i] = auctionToken.balanceOf(bidderAddresses[i]);\n        }\n        \n        return (contractBalance, biddersTokens, bidders);\n}\n}\n",
  "sourcePath": "/Users/arjun/Code/School/Blockchain/SC4053/contracts/DutchAuction.sol",
  "compiler": {
    "name": "solc",
    "version": "0.8.21+commit.d9974bed.Emscripten.clang"
  },
  "schemaVersion": "3.4.16",
  "updatedAt": "2024-11-10T05:29:18.797Z",
  "networkType": "ethereum",
  "devdoc": {
    "kind": "dev",
    "methods": {},
    "version": 1
  },
  "userdoc": {
    "kind": "user",
    "methods": {},
    "version": 1
  }
}